:020000040800F2
:10000000080800207902000843200008271E000885
:10001000412000086F040008052A000800000000C5
:100020000000000000000000000000004720000861
:100030007104000800000000452000084920000865
:10004000930200089302000893020008930200083C
:10005000930200089302000893020008930200082C
:10006000930200089302000893020008930200081C
:10007000930200089302000893020008930200080C
:100080009302000800000000930200089302000899
:1000900093020008930200089302000893020008EC
:1000A00093020008930200089302000893020008DC
:1000B00093020008930200089302000893020008CC
:1000C00093020008930200089302000893020008BC
:1000D00093020008F929000893020008930200081F
:1000E000930200089302000893020008930200089C
:1000F0009302000893020008930200080000000029
:1001000000000000930200080000000093020008B5
:100110009302000800000000C520000893020008B8
:10012000930200089302000893020008930200085B
:100130009302000800000000000000009302000885
:100140009302000893020008000000000000000075
:10015000000000000000000000000000000000009F
:1001600000000000000000000000000093020008F2
:1001700093020008000000000000000000000000E2
:1001800000000000930200080000000000000000D2
:10019000000000000000000000000000000000005F
:1001A0000000000000000000930200089302000815
:1001B0009302000893020008930200080000000068
:1001C0000000000093020008000000000000000092
:1001D000930200089302000800F002F800F03CF8D7
:1001E0000AA090E8000C82448344AAF10107DA4592
:1001F00001D100F031F8AFF2090EBAE80F0013F0A8
:10020000010F18BFFB1A43F001031847B42900007F
:10021000D4290000103A24BF78C878C1FAD8520710
:1002200024BF30C830C144BF04680C607047000070
:100230000023002400250026103A28BF78C1FBD8EF
:10024000520728BF30C148BF0B6070471FB502F08E
:1002500091FC1FBD10B510BD00F0D4F81146FFF79A
:10026000F5FF02F0E1FB00F0F2F803B4FFF7F2FF54
:1002700003BC00F0F5F80000094880470948004732
:10028000FEE7FEE7FEE7FEE7FEE7FEE7FEE7FEE746
:10029000FEE7FEE704480549054A064B70470000A3
:1002A000B5200008D9010008080200200808002035
:1002B000080400200804002053EA020C00F06980C2
:1002C0002DE9F04B4FF00006002B1FBFB3FA83F56A
:1002D00003FA05F424FA05F65E4012BF1643B2FA9B
:1002E00082F502FA05F4C5F120051EBF22FA05FCCD
:1002F00044EA0C04203556EA044C4FEA144418BF73
:10030000641C4FF000084FF00009904271EB030CA1
:1003100039D3002919BFB1FA81F701FA07F6B0FA0B
:1003200080F700FA07F6C7F120071EBF20FA07FC86
:1003300046EA0C062037B6FBF4FCA7EB0507103F96
:1003400007F01F0BCBF120060CFA0BFB2CFA06F67C
:1003500044BFB3460026202FA4BF5E464FF0000BDB
:100360005BEA060C08BF4FF0010B19EB0B09ABFB66
:10037000027C48EB0608C01B06FB02CC0BFB03CC3F
:1003800071EB0C01C1E70B46024641464846BDE809
:10039000F08B13B54FF000004FF00001AFF3008079
:1003A000BDE81C4070474FF0000200B5134694466C
:1003B0009646203922BFA0E80C50A0E80C50B1F1BD
:1003C0002001BFF4F7AF090728BFA0E80C5048BFD1
:1003D0000CC05DF804EB890028BF40F8042B08BF6F
:1003E000704748BF20F8022B11F0804F18BF00F86B
:1003F000012B7047704770477047000000487047F6
:10040000A80100207546FFF7F9FFAE4605006946D2
:10041000534620F00700854618B020B5FFF73AFF95
:10042000BDE820404FF000064FF000074FF00008F5
:100430004FF0000B21F00701AC46ACE8C009ACE876
:10044000C009ACE8C009ACE8C0098D46704710B5DA
:100450000446AFF300802046BDE81040FFF705BF1B
:1004600001491820ABBEFEE7260002007047FEE7F8
:10047000704772B6FEE710B590F8253000210122D2
:10048000022B03D00421C163012122E003681C6810
:1004900024F00E041C60836C1C6824F480741C60BF
:1004A00003681C6824F001041C6090F84430046C5C
:1004B00003F01F0302FA03F36360D0E913345C60B6
:1004C000436D33B11C6824F480741C60D0E9163489
:1004D0005C6080F82520002280F82420084610BDAA
:1004E00070B590F82520002401212346022A07D068
:1004F0000422C26380F8251080F82430012429E00A
:100500000268156825F00E0515600268156825F06B
:1005100001051560826C156825F48075156090F8EA
:100520004420056C02F01F0201FA02F26A60D0E971
:1005300013255560426D32B1156825F4807515603C
:10054000D0E91625556080F8251080F82430816B9D
:1005500001B18847204670BD2DE9F04FDFF82092A9
:10056000002301260324A9F1040B85B00F2709F10C
:10057000040AABF1040EFAE006FA03F52A407CD037
:1005800091F804C00CF0030CBCF1010F02D0BCF1D7
:10059000020F26D1D0F808C0CDF800C04FEA430CB6
:1005A00004FA0CF8CDF810C0DDF800C02CEA080CF5
:1005B000CDF800C0D1F80C80DDF810C008FA0CF8B6
:1005C000DDF800C048EA0C08C0F80880D0F804C084
:1005D0002CEA050C0D79C5F300159D4045EA0C0584
:1005E00045600D79ED43AD070ED0C5684FEA43086D
:1005F00004FA08FC25EA0C05D1F808C00CFA08FC3E
:100600004CEA050CC0F80CC00D7905F00305022D6D
:1006100016D1DD0800EB850CCDF808C0DCF8208091
:100620005D074FEAD56C07FA0CF528EA05080D6955
:1006300005FA0CF5DDF808C045EA0805CCF82050AD
:1006400005684FEA430CCDF808C004FA0CFC25EA13
:100650000C0591F804C00CF00308DDF808C008FA96
:100660000CF848EA0508C0F800804D6815F4403FD2
:100670007CD0444DD5F860C000E077E04CF0010C30
:10068000C5F860C02D6E23F0030C05F00105009540
:100690003D4D65440295AD684FEA837C4FEA1C7876
:1006A00007FA08FC25EA0C05B0F1904F06D0DFF8F8
:1006B000DCC0604505D14FF0010C20E04FF0000C8C
:1006C0001DE0DFF8CCC0604502D14FF0020C16E00F
:1006D000DFF8C0C0604502D14FF0030C0FE0DFF837
:1006E000B8C0604502D14FF0040C08E0DFF8ACC0A0
:1006F000604502D14FF0050C01E04FF0060C0CFAFA
:1007000008FC4CEA050C029DC5F808C0D9F8005059
:10071000CC46D1F8048095435FEAC82800D515433C
:10072000CCF80050DAF80050D446D1F80480954354
:100730005FEA882800D51543CCF80050DBF800505C
:10074000DC46D1F8048095435FEA883800D515432C
:10075000CCF80050DEF80050F446D1F80480954300
:100760005FEAC83800D51543CCF800505B1C0A6816
:1007700032FA03F57FF400AF05B0BDE8F08F00005A
:10078000080401400010024000000140000400483D
:1007900000080048000C0048001000480014004801
:1007A000014880687047000004000020024881680A
:1007B00042681144816070470400002010B5002495
:1007C000032000F073F80F2000F008F808B10124AE
:1007D00001E000F025F8204610BD000070B50E4E77
:1007E00005460024706898B14FF47A71B1FBF0F0BF
:1007F0000A490968B1FBF0F000F05EFD40B9102D28
:1008000006D200222946501E00F030F8356000E084
:100810000124204670BD00000400002010000020CC
:100820000A4882B0016E41F001010166016E01F0DB
:1008300001010091816D41F080518165806D00F072
:100840008050009002B000F0A1B8000000100240FB
:10085000002809DB00F01F020121914040098000BF
:1008600000F1E020C0F8001170470000F0B40E4B1A
:100870001B680C46C3F30223C3F10705042D00D9FE
:100880000425191D072901D2002300E0DB1E0126E3
:1008900006FA05F1491E214099409E40761E1640F9
:1008A0003143F0BC02F0AFB80CED00E0064900F0B7
:1008B000070208684FF6FF03184040EA0220034A87
:1008C00010430860704700000CED00E00000FA05DE
:1008D0002B492C4B0A6832214A432B4940B1B0F5D1
:1008E000007F086829D020F4C06040F480602CE0CC
:1008F0000868C0F34120022804D051F8800F20F48A
:10090000807022E0D1F8800020F48070C1F880006F
:10091000086820F4C06040F400700860B2FBF3F097
:10092000401C00E0401E4A69520501D50028F9D15B
:10093000486940050AD503207047C0F341200228CA
:1009400006D051F8800F40F4807008600020704796
:10095000D1F8800040F48070C1F88000086820F46D
:10096000C06040F400700860B2FBF3F0401C00E08F
:10097000401E4A695205DBD50028F9D1D8E70000AE
:100980001000002040420F000070004002488168C3
:1009900041F4804181607047007000402DE9F843C8
:1009A0000446006800269D4D00035ED5A86D002713
:1009B000C00008D4A86D40F08050A865A86D01273C
:1009C00000F080500090DFF85892D9F8001041F400
:1009D0008071C9F80010FFF7E3FE804606E000BF13
:1009E000FFF7DEFEA0EB080002282BD8D9F80000A4
:1009F000C005F5D5D5F8900010F4407014D0216CE6
:100A0000814211D0D5F89000D5F8901020F44070B4
:100A100041F48031C5F89010D5F8901021F4803160
:100A2000C5F89010C5F89000C00711D0FFF7B8FEC8
:100A3000804641F2883907E0FFF7B2FEA0EB0801DB
:100A4000494501D903260BE0D5F890008007F3D57E
:100A5000D5F89000216C20F440700843C5F8900050
:100A60001FB1A86D20F08050A8652078C00707D07E
:100A7000D5F88800616820F003000843C5F88800B5
:100A80002078800707D5D5F88800A16820F00C00F1
:100A90000843C5F888002078400707D5D5F88800B6
:100AA000E16820F030000843C5F88800207800078E
:100AB00007D5D5F88800216920F0C0000843C5F8A3
:100AC00088002078800607D5D5F88800616920F471
:100AD00040600843C5F888002078400607D5D5F85F
:100AE0008800A16920F440500843C5F888002078A8
:100AF000000607D5D5F88800E16920F44040084396
:100B0000C5F888002088C00507D5D5F88800216A77
:100B100020F440300843C5F888002088800507D5B8
:100B2000D5F88800616A20F440200843C5F88800A1
:100B3000208840050FD5D5F88800A16A20F4401020
:100B40000843C5F88800A06AB0F5801F03D1E868A3
:100B500040F48010E860208800050FD5D5F88800A3
:100B6000E16A20F440000843C5F88800E06AB0F567
:100B7000800F03D1E86840F48010E8602088C0044A
:100B80000FD5D5F88800216B20F040700843C5F8D8
:100B90008800206BB0F1807F03D1E86840F48010BA
:100BA000E86020884FF0006180040ED5D5F88800F9
:100BB000626B20F040601043C5F88800606B88428B
:100BC00003D1E86840F48010E860208840040ED526
:100BD000D5F88800A26B20F040601043C5F888006B
:100BE000A06B884203D1E86840F48010E860208858
:100BF00000040FD5D5F88800E16B20F04050084381
:100C0000C5F88800E06BB0F1805F03D1E86840F47C
:100C10008030E8603046BDE8F883000000100240F4
:100C2000007000402DE9F0470E4605004FF0000728
:100C300025D0DFF8AC81D8F8000000F00F00B042FA
:100C40000CD2D8F8001021F00F013143C8F8001081
:100C5000D8F8000000F00F00B04210D12968614CB4
:100C6000C80741F2883A5AD06868DFF87C910328B7
:100C700008D0022820682DD0400500282CDB012058
:100C8000BDE8F08720688001F9D5E06800F0030234
:100C9000E068C0F30310401C032A19D0534A00BF78
:100CA000B2FBF0F0E268C2F306225043E268C2F3FE
:100CB0004162521C5200B0FBF2F0484517D9A068BF
:100CC00010F0F00F0CD0880711D5A86840B10EE0E5
:100CD000474AE5E78003D0E700F0B6F8484506D973
:100CE000A06820F0F00040F08000A0608027A0689D
:100CF000696820F003000843A060FFF751FD8146BA
:100D000006E000BFFFF74CFDA0EB090151453AD8C2
:100D1000A068696800F00C00B0EB810FF2D1286880
:100D2000810714D5400703D5A06840F4E060A060B7
:100D30002878000705D5A06820F4605040F4E060F2
:100D4000A060A068A96820F0F000084304E0802FAC
:100D500003D1A06820F0F000A060D8F80010404651
:100D600001F00F01B14216D9016821F00F013143A2
:100D70000160FFF715FD074607E000BFFFF710FD14
:100D8000C11B514501D903207AE7D8F8000000F0D3
:100D90000F00B042F2D12878400705D5A068E96875
:100DA00020F4E0600843A0602878000706D5A0681A
:100DB000296920F4605040EAC100A06000F044F8C6
:100DC000A1680C4AC1F30311515C01F01F01C84036
:100DD0000949086009480068BDE8F047FFF7FEBC14
:100DE000002002400010024000B4C4040024F400BB
:100DF00000127A00A62B000810000020040000203A
:100E00000548064900688968054AC1F30221515C1A
:100E100001F01F01C8407047100000200010024080
:100E2000B62B00080548064900688968054AC1F3E1
:100E3000C221515C01F01F01C84070471000002022
:100E400000100240B62B0008184910B58868C0F39E
:100E500081021748012A0BD08A684310C2F381022D
:100E6000022A06D08A68C2F38102032A03D0002036
:100E700010BD184610BDCA6802F00304CA68C2F368
:100E80000312521C032C02D0B0FBF2F001E0B3FBC2
:100E9000F2F0CA68C968C2F306225043C1F3416147
:100EA000491C4900B0FBF1F010BD000000100240E9
:100EB0000024F4002DE9F84304007AD02078F84D9E
:100EC000C00747D0A868E96800F00C0001F00301F2
:100ED0000C2802D0082817D001E0032914D060683C
:100EE000B0F5803F17D0B0F5A02F286817D020F4B8
:100EF00080302860286820F4802028606068E0B195
:100F0000FFF74EFC064614E02868800322D560688F
:100F10000028D2D01EE0286840F48030EDE740F48D
:100F200080202860F7E700BFFFF73AFC801B6428A9
:100F300070D828688003F7D50CE0FFF731FC06462F
:100F400005E000BFFFF72CFC801B6428F0D8286860
:100F50008003F7D4207880074CD5A868E96800F0B2
:100F60000C0001F003010C2802D004280DD001E090
:100F700002290AD0E068002828682BD040F480704D
:100F80002860FFF70DFC064619E02868400502D5E9
:100F9000E068002891D06868217C20F0FE4040EA9B
:100FA00001606860BF480068FFF718FC002800D1A6
:100FB00020E072E1FFF7F4FB801B0228B8D8286814
:100FC0004005F7D56868217C20F0FE4040EA0160CA
:100FD00068600FE020F480702860FFF7E1FB0646B0
:100FE00005E000BFFFF7DCFB801B0228A0D82868C3
:100FF0004005F7D42078000729D560690028D5F886
:10100000940013D040F00100C5F89400FFF7C8FB2E
:10101000064606E090E000BFFFF7C2FB801B0228F7
:1010200086D8D5F894008007F6D510E020F00100AE
:10103000C5F89400FFF7B4FB064604E0FFF7B0FBE9
:10104000801B022878D8D5F894008007F6D4207841
:10105000400761D5A86D0026C00008D4A86D40F0F7
:101060008050A865A86D012600F0805000908E4841
:101070000168C90511D40168804641F4807101609E
:10108000FFF78EFB074604E0FFF78AFBC01B022830
:1010900052D8D8F80000C005F6D5A068012815D0B0
:1010A0000528D5F8900016D020F00100C5F8900072
:1010B000D5F8900020F00400C5F89000A06841F237
:1010C0008838B8B1FFF76CFB07460EE0D5F8900002
:1010D00040F00100F0E740F00400C5F89000F5E7AB
:1010E000FFF75EFBC11B414526D8D5F8900080076D
:1010F000F6D50CE0FFF754FB074604E0FFF750FB82
:10110000C11B414518D8D5F890008007F6D41EB110
:10111000A86D20F08050A8652078800629D5A069A8
:101120000028D5F8980013D040F00100C5F89800C9
:10113000FFF736FB064606E075E000BFFFF730FB21
:10114000801B02286FD8D5F898008007F6D510E0EC
:1011500020F00100C5F89800FFF722FB064604E0E6
:10116000FFF71EFB801B02285DD8D5F8980080078A
:10117000F6D4E069F0B3A968C1F3810103295DD019
:101180000228286820F08070286003D0FFF708FB51
:1011900004464BE0FFF704FB064604E0FFF700FBC4
:1011A000801B02283FD828688001F7D4F4E90801A1
:1011B0006FF00F0202EB01110843218A5204490823
:1011C00002EB4151A26841EA02210843217D4FF020
:1011D0007E42490802EB41610843217B40EAC1603D
:1011E000E968324A11400843E860286840F080709E
:1011F000286000E05EE0E86840F08070E860FFF79B
:10120000CFFA044605E000BFFFF7CAFA001B022828
:1012100009D828688001F7D54CE000BFFFF7C0FA75
:10122000001B022802D90320BDE8F883286880014A
:10123000F4D4E8681E490840E8603BE00128F3D098
:10124000E868226A00F00301914226D1616A00F049
:10125000F0020901103991421FD1A26A00F4FE4147
:10126000B1EB022F19D194F82C2000F07841B1EBAA
:10127000C26F12D1218E00F4C00249084905A1F5C0
:101280000011914209D194F8341000F0C06049086F
:101290004906A1F1007181420CD00120C4E7000091
:1012A0000010024004000020007000400C809F01EC
:1012B000FCFFEEFE0020B7E710B5401EB0F1807FC6
:1012C00001D3012010BD4FF0E02460610F216017B1
:1012D00001F099FB0020A06107202061002010BDD3
:1012E000704770477047704770477047F0B590F887
:1012F0003C20012A3AD0012580F83C50022280F897
:101300003D2003685A689C68194E1A4FB34201D0B9
:10131000BB4204D122F4700C4A6842EA0C02DFF8A6
:1013200058C002EA0C02D1F800C04CEA020CC3F823
:1013300004C00268B2420DD0B2F1804F0AD00F4B08
:101340009A4207D00E4B9A4204D0BA4202D00D4BBB
:101350009A4204D1896824F080031943916080F88F
:101360003D50002180F83C100846F0BD0220F0BD41
:10137000002C0140003401408FFFFFFD00040040BD
:101380000008004000400140704710B5040003D041
:1013900094F83D0010B107E0012010BD002084F852
:1013A0003C00204600F022F8022084F83D00211D78
:1013B000206800F08DFE012084F8480084F83E008B
:1013C00084F83F0084F8400084F8410084F842002B
:1013D00084F8430084F8440084F8450084F846000B
:1013E00084F8470084F83D00002010BD08B500686F
:1013F0000B49884212D10B48816D41F01001816583
:10140000806D002200F01000009001213620FFF7CF
:101410002DFABDE808403620FFF71ABA08BD0000D3
:10142000001000400010024070472DE9F0410446D2
:101430000068C66805694FF00007A90713D5B10712
:1014400011D5F91E0161012020772068806980078D
:10145000204602D0FFF7E8FF04E000F0F1F8204654
:1014600000F0D0F92777680716D5700714D52168E2
:101470006FF004000861022020772068806910F472
:10148000407F204602D0FFF7CFFF04E000F0D8F8FD
:10149000204600F0B7F92777280715D5300713D570
:1014A00021686FF008000861042020772068C06977
:1014B0008007204602D0FFF7B7FF04E000F0C0F835
:1014C000204600F09FF92777E80616D5F00614D5D8
:1014D00021686FF010000861082020772068C0693B
:1014E00010F4407F204602D0FFF79EFF04E000F09A
:1014F000A7F8204600F086F92777E80708D0F0071C
:1015000006D021686FF001000861204600F0FAF96A
:10151000280601D4A80408D5300606D521686FF442
:10152000025008612046FFF7DCFEE80508D53006CA
:1015300006D521686FF4807008612046FFF7D0FE61
:10154000680608D5700606D521686FF0400008616E
:10155000204600F0D8F9A80608D5B00606D52168BF
:101560006FF0200008612046FFF7BCFEE80208D5B6
:10157000F00206D521686FF4801008612046FFF75D
:10158000B3FEA80208D5B00206D521686FF400109A
:1015900008612046FFF7A7FE680208D5700206D54D
:1015A00021686FF4800008612046FFF79EFE280244
:1015B0000AD5300208D521686FF400000861204682
:1015C000BDE8F041FFF7E0BEBDE8F08130B587B07F
:1015D000044614216846FEF7E6FE246800231649F7
:1015E00002224FF09040B4F1804F15D0134DAC4221
:1015F00010D1CC6C44F00104CC64C96C01F0010141
:10160000059150218DE80E00CDE90332694600BFF7
:10161000FEF7A2FF07B030BDCC6C44F00104CC64EF
:10162000C96C01F0010105910F218DE80E00012127
:10163000CDE903316946EBE70010024000040040A9
:10164000704770B5044690F83C0000260D4601280E
:101650000BD0012084F83C000C2A4AD007DC82B170
:10166000042A20D0082A06D131E0022070BD102AB9
:1016700053D0142A63D00126002084F83C00304661
:1016800070BD206800F090FD2068816941F008017C
:1016900081612068816921F004018161206881698C
:1016A0002A69114311E0206800F0CCFD20688169AF
:1016B00041F4006181612068816921F48061816168
:1016C000206881692A6941EA02218161D4E72068A2
:1016D00000F000FE2068C16941F00801C161206886
:1016E000C16921F00401C1612068C1692A691143FF
:1016F00011E0206800F036FE2068C16941F4006105
:10170000C1612068C16921F48061C1612068C1693B
:101710002A6941EA0221C161AEE7206800F06AFE51
:101720002068016D41F0080101652068016D21F01C
:10173000040101652068016D2A69114311E02068E8
:1017400000F090FE2068016D41F4006101652068A1
:10175000016D21F4806101652068016D2A6941EA0B
:101760000221016588E710B5040003D094F83D001C
:1017700010B107E0012010BD002084F83C00204695
:1017800000F022F8022084F83D00211D206800F0BE
:101790009FFC012084F8480084F83E0084F83F0054
:1017A00084F8400084F8410084F8420084F8430043
:1017B00084F8440084F8450084F8460084F8470023
:1017C00084F83D00002010BD08B501680B48B1F158
:1017D000804F0BD00A4A914207D1816D41F002013E
:1017E0008165806D00F00200009008BD816D41F0C0
:1017F00001018165806D00F00100F5E700100240F5
:10180000000400407047000030B50446022269B170
:10181000042912D0082917D00C291CD0102921D056
:1018200094F84300012824D0012030BD94F83E00F4
:101830000128F9D184F83E201DE094F83F000128EA
:10184000F2D184F83F2016E094F840000128EBD153
:1018500084F840200FE094F841000128E4D184F896
:10186000412008E094F842000128DDD184F84220AC
:1018700001E084F843200122206800F087FC194B26
:1018800020681949194A984209D0884207D09042E5
:1018900005D0174DA84202D0164DA84203D1456C81
:1018A00045F400454564206898420CD0B0F1804F63
:1018B00009D0114B984206D0104B984203D0884271
:1018C00001D0904207D181680D4A1140062906D007
:1018D000B1F5803F03D0016841F0010101600020B3
:1018E00030BD0000002C01400034014000400140A8
:1018F000004401400048014000040040000800404E
:10190000070001007047704790F88410012918D033
:10191000012180F884102421C0F8881001680A6829
:101920000B6823F001030B6022F000510022426695
:10193000036819602021C0F8881080F884201046C0
:101940007047022070477047704770B5044690F8A2
:10195000840001281DD0012084F884002420C4F8CC
:10196000880020680568026822F001020260206891
:10197000826822F060620A438260204600F0AAFD7D
:10198000206805602020C4F88800002084F88400C6
:1019900070BD022070BD70B5044690F88400012827
:1019A0001DD0012084F884002420C4F88800206819
:1019B0000568026822F0010202602068826822F055
:1019C00060420A438260204600F084FD2068056082
:1019D0002020C4F88800002084F8840070BD022014
:1019E00070BD7047704770472DE9F04103680446A9
:1019F000D86919689A6840F60F0528424FF000052B
:101A00004FF002060AD187067ED501F0200702F0CA
:101A1000805C57EA0C0777D0616F42E1B64FDFF880
:101A2000DCC2174001EA0C0C57EA0C0C6CD05FEAE0
:101A3000C07C0CD05FEAC15C09D54FF0010CC3F843
:101A400020C0D4F8903043F00103C4F890308307ED
:101A500009D5D30707D023681E62D4F8903043F02D
:101A60000403C4F8903043070AD5D30708D026688A
:101A700004233362D4F8903043F00203C4F890306A
:101A800003070CD501F020033B4308D02668082348
:101A90003362D4F8903043F00803C4F89030030563
:101AA0000BD54B0109D526684FF400633362D4F897
:101AB000903043F02003C4F89030D4F89030002BDD
:101AC0003DD0800609D501F0200002F08051084386
:101AD00003D0616F09B120468847D4F8900021688F
:101AE0008968490602D410F0280F2AD0204600F059
:101AF000D5FD2068806840061ED52068083050E873
:101B0000001F21F0400100E021E040E80012002A1F
:101B1000F3D1D4F8800078B179498163D4F880009A
:101B2000FEF7DEFC00280AD0D4F88000816B00E0CC
:101B30002046BDE8F04108472046FFF754FFBDE8C6
:101B4000F0812046FFF74FFFC4F89050F7E7D4F834
:101B50006CC02027BCF1010F7ED15FEAC06C7BD541
:101B60005FEAC16C78D51020186220688068400652
:101B700051D5D4F880100A6850680004000C3ED09B
:101B8000B4F85C3083423AD9A4F85E000868006873
:101B900080062CD4216851E8000F20F4807041E8C1
:101BA0000002002AF6D12068083050E8001F21F01A
:101BB000010140E80012002AF5D12068083050E801
:101BC000001F21F0400140E80012002AF5D1C4F8BE
:101BD0008C70E566216851E8000F20F0100041E8A4
:101BE0000002002AF6D1D4F88000FEF744FC2667F4
:101BF000B4F85C00B4F85E10401A81B207E0B4F8A3
:101C00005C1081429BD11068800698D526672046DB
:101C1000FFF799FE93E7B4F85C00B4F85E10401A41
:101C200081B2B4F85E00002889D0002987D02268EC
:101C300052E8000F20F4907042E80003002BF6D128
:101C40002D4BDB432068083050E8002F1A4040E855
:101C5000002CBCF1000F00E00EE0F3D1C4F88C7052
:101C6000E5666567206850E8002F22F0100240E822
:101C70000023002BF6D1C9E7C60209D5560207D5C5
:101C80004FF4801018622046BDE8F041FFF7AABE6D
:101C900003060AD501F0800302F40002134304D0C6
:101CA000A16F00297FF444AF49E7420611D54A06E7
:101CB0000FD52046016851E8002F22F0400241E88C
:101CC0000023002BF6D1C0F88870856700F0AAF8D1
:101CD00035E7020206D54A0004D52046BDE8F041AA
:101CE000FFF77FBEC00195D5002993DA2046BDE8F5
:101CF000F041FFF729BE00000100001020010004A0
:101D00008D26000810B5040003D0D4F8880010B167
:101D100007E0012010BD002084F88400204600F078
:101D200027F82420C4F888002068016821F0010108
:101D30000160A06A10B1204600F0EEFB204600F0E2
:101D4000D7FC0128E6D02068416821F49041416029
:101D50002068816821F02A0181602068016841F0D3
:101D6000010101602046BDE8104000F039BC0000D0
:101D700070B598B00446142111A8FEF714FB442155
:101D80006846FEF710FB24492068884241D10120B3
:101D90000024CDE900046846FEF700FE08B1FEF716
:101DA00068FB1E48016E41F480410166016E01F43A
:101DB00080411691C16C41F00401C164C16C01F015
:101DC00004011691C16C41F00101C164C06C02258F
:101DD00000F00100169007261020CDE91254CDE93D
:101DE0001446119011A90E48FEF7B6FB6802CDE922
:101DF0001254CDE91446119011A94FF09040FEF70E
:101E0000ABFB002202212520FEF730FD2520FEF746
:101E10001FFD18B070BD00000038014000100240E6
:101E2000000800487047FEE70D4808B5C16C41F056
:101E30002001C164C16C01F020010091C16C41F02E
:101E40000101C164C16C01F001010091C16C41F05C
:101E50000401C164C06C00F00400009008BD0000E3
:101E60000010024010B58AB00024079408941C2189
:101E700068460994FEF797FA22484FF080410160C6
:101E8000A921C0E9011444F61F61C0E903148021AF
:101E90008161FFF768FC08B1FEF7EBFA079407A928
:101EA00018480994FFF722FA08B1FEF7E2FA602019
:101EB000CDE9000402940022694612480494FFF719
:101EC000C0FB08B1FEF7D5FA042269460D48FFF7BA
:101ED000B8FB08B1FEF7CDFA082269460948FFF7BA
:101EE000B0FB08B1FEF7C5FA0C2269460548FFF7BA
:101EF000A8FB08B1FEF7BDFA0248FFF767FB0AB07E
:101F000010BD00003000002010B58AB000240794F6
:101F100008941C2168460994FEF745FA1A481949A5
:101F20000160A921C0E9011444F61F61C0E903144E
:101F300080218161FFF717FC08B1FEF79AFA079438
:101F400007A911480994FFF7D1F908B1FEF791FAF2
:101F50006020CDE900040294002269460A480494F6
:101F6000FFF76FFB08B1FEF784FA042269460648C2
:101F7000FFF767FB08B1FEF77CFA0348FFF726FB83
:101F80000AB010BD000400407C0000203EB50024D3
:101F90001048009401940E490294016040F2A3613C
:101FA000C0E9011440F2F311C16080218161FFF7A3
:101FB000ECF908B1FEF75DFA009469460548029411
:101FC000FFF794F9002801D0FEF753FA3EBD000058
:101FD00000100040C8000020184810B516490160E4
:101FE0004FF416514160002181600C22C160C0E9AC
:101FF00004128161C161016241628162FFF782FE68
:1020000008B1FEF736FA00210C48FFF7C4FC08B10E
:10201000FEF72FFA00210948FFF797FC08B1FEF7F9
:1020200028FA0648FFF770FC002803D0BDE81040EE
:10203000FEF71FBA10BD0000003801401401002057
:10204000FEE7FEE770477047FEF7B0BB00B593B000
:1020500038216846FEF7A7F914210EA8FEF7A3F968
:102060000020FEF735FC0220C101039140210491BC
:102070000421CDE9080100905521CDE90A1007900F
:102080000C900D906846FEF715FF08B172B6FEE79A
:102090000F200E9003200F900020109011901290AE
:1020A00004210EA8FEF7BEFD002801D072B6FEE79F
:1020B00013B000BD0248016841F47001016070472F
:1020C00088ED00E00148FFF7B0B90000C80000202B
:1020D0002DE9F0430268264B264D274E274C4FF042
:1020E0008049984207D0484505D0A84203D0B04265
:1020F00001D0A04203D122F070074A683A43204F32
:10210000DFF880C0DFF8808098420DD048450BD0C2
:10211000A84209D0B04207D0A04205D0B84203D0AF
:10212000604501D0404503D122F44075CA682A4376
:102130004D6922F080022A4302608A68C2620A68FE
:102140008262984207D0A04205D0B84203D06045D1
:1021500001D0404501D10969016301214161016953
:10216000C90703D0016921F001010161BDE8F083D5
:10217000002C0140000400400008004000340140F1
:1021800000400140004401400048014010B501F00A
:102190001F030121046A99408C430462016A9A403A
:1021A0001143016210BD00002DE9F043056A026A87
:1021B00022F001020262436882691C4C25F002058C
:1021C00022400C6822F0030214438A68194E2A4305
:1021D000174D194FDFF864C0DFF86490A84207D0AC
:1021E000B04205D0B84203D0604501D0484506D181
:1021F00022F00808CA6842EA080222F00402A84253
:1022000007D0B04205D0B84203D0604501D0484560
:1022100005D14D6923F440731D438B692B43436003
:102220008461496841630262BDE8F0838FFFFEFF6D
:10223000002C0140003401400040014000440140B6
:1022400000480140F0B5056A026A22F010020262FD
:1022500042688369194C1B4E23400C6823F4407379
:1022600043EA042425F020038D6843EA0513144D46
:10227000A84201D0B04206D1CF6823F0800343EAE0
:10228000071323F04003A8420AD0B04208D00E4DF5
:10229000A84205D00D4DA84202D00D4DA84207D14D
:1022A0004D6922F4406242EA85028D6942EA850264
:1022B00042608461496881630362F0BDFF8FFFFE65
:1022C000002C014000340140004001400044014026
:1022D00000480140F0B5056A026A22F48072026289
:1022E0004368C269194C1B4E22400C6822F003025D
:1022F000144325F400728D6842EA0522144DA84269
:1023000001D0B04206D1CF6822F4006242EA07222F
:1023100022F48062A8420AD0B04208D00E4DA842F2
:1023200005D00E4DA84202D00D4DA84207D14D69EF
:1023300023F4405343EA05138D6943EA05134360D0
:10234000C4614968C1630262F0BD00008FFFFEFFF7
:10235000002C014000340140004001400044014095
:1023600000480140F0B5056A026A22F48052026218
:102370004268C369194C1B4E23400C6823F4407318
:1023800043EA042425F400538D6843EA0533144DD1
:10239000A84201D0B04206D1CF6823F4004343EAFB
:1023A000073323F48043A8420AD0B04208D00E4D30
:1023B000A84205D00D4DA84202D00D4DA84207D12C
:1023C0004D6922F4404242EA85128D6942EA851243
:1023D0004260C461496801640362F0BDFF8FFFFE83
:1023E000002C014000340140004001400044014005
:1023F0000048014030B5056A026A22F48032026268
:102400004268036D114C23400C681C4325F40033D3
:102410000D8943EA05430E4DA8420BD00D4DA8424D
:1024200008D00D4DA84205D00C4DA84202D00C4D4D
:10243000A84204D14D6922F4803242EA052242606A
:10244000046549688164036230BD00008FFFFEFFB0
:10245000002C014000340140004001400044014094
:102460000048014030B5046A026A22F48012026218
:102470004268036D114D24F400142B400D6843EAAB
:1024800005230D8944EA05540D4DA8420BD00D4D8E
:10249000A84208D00C4DA84205D00C4DA84202D04D
:1024A0000B4DA84204D14D6922F4802242EA8522D4
:1024B000426003654968C164046230BDFF8FFFFE5E
:1024C000002C014000340140004001400044014024
:1024D0000048014030B5416EB9B102689168926818
:1024E000C1F342610B4B520F9C5CE50003F1080401
:1024F000A25CB5FBF2F2A0F86A205A5C615CD200E3
:10250000B2FBF1F1A0F8681030BD0121A0F86A100B
:10251000F8E70000962B000890F82810090706D568
:1025200001684A68836B22F400421A434A6090F8BB
:102530002810C90706D001684A68C36A22F400322D
:102540001A434A6090F82810890706D501684A683E
:10255000036B22F480321A434A6090F8281049072E
:1025600006D501684A68436B22F480221A434A6008
:1025700090F82810C90606D501688A68C36B22F452
:1025800080521A438A6090F82810890606D501689F
:102590008A68036C22F400521A438A6090F828106B
:1025A000490611D501684A68436C22F480121A4327
:1025B0004A60416CB1F5801F06D101684A68836C9E
:1025C00022F4C0021A434A6090F82810090606D582
:1025D00001684A68C06C22F4002202434A607047D6
:1025E0002DE9F84300260446C0F89060FEF7D8F8BD
:1025F0008046206800684FF0200500076FF07E4796
:1026000013D54346002229042046009700F0AAF97A
:1026100058B1216851E8000F20F0800041E8000225
:10262000002AF6D1C4F8885021E0206800684007ED
:1026300022D5434600224FF480012046009700F047
:1026400091F9C8B1216851E8000F20F4907041E879
:102650000002002AF6D12068083050E8001F21F05F
:10266000010140E80012002AF5D1C4F88C5084F82A
:1026700084600320BDE8F883C4F88850C4F88C5007
:1026800044F86C6F666026760020F3E710B5806A28
:102690000021A0F85E10FFF7A6F910BD10B5026882
:1026A00052E8001F21F4907142E80013002BF6D18C
:1026B0000E4B0268083252E8001F194042E800142D
:1026C000002CF6D1C16E012908D1016851E8002F14
:1026D00022F0100241E80023002BF6D12021C0F89F
:1026E0008C100021C166416710BD0000FEFFFFEFA6
:1026F0002DE9F0410446016880682269E3691043CE
:10270000626900251A431043DFF82CC20A688B4B1C
:102710001A4002430A6020684168E26821F440518F
:10272000114341602168A069614501D0226A1043CC
:102730008A68834B1A4002438A602068C16A626AD1
:1027400021F00F011143C1627E4923687E488B420C
:102750000DD1D0F8880010F0030006D0012855D024
:10276000022842D003283FD152E001203DE07749C2
:102770008B420BD1D0F8880010F00C0035D0042823
:1027800033D0082840D00C282ED141E070498B422C
:102790000BD1D0F8880010F0300026D0102835D0AA
:1027A000202831D030281FD132E06A498B420BD12A
:1027B000D0F8880010F0C00017D0402826D080281C
:1027C00022D0C02810D123E063450DD1D0F8880075
:1027D00010F4406009D0B0F5806F17D0B0F5006FED
:1027E00012D0B0F5406F13D010205B495B4F00262C
:1027F0004FF4004263453BD160B1022813D0042856
:102800000BD0082872D10DE00220EEE70420ECE79F
:102810000820EAE7FEF7F4FA01E0FEF715FB0100F5
:1028200001D17CE01146606A37F810206768B1FB7F
:10283000F2F007EB4703834270D8B0EB073F6DD847
:10284000002308461946FDF737FD090241EA1061E9
:1028500002027808101871413A460023FDF72CFD5A
:102860003F4AA0F54071914258D82168C86056E0AF
:10287000E3694FF6EF7893422CD109284ED2DFE876
:1028800000F00508114D0D4D4D4D1000FEF7B8FA42
:1028900001E0FEF7C7FA010004D140E0FEF7D4FAE8
:1028A000F9E71146606A37F81000B1FBF0F041001B
:1028B000606801EB5001B1FBF0F0A0F1100141455F
:1028C0002CD84FF6F0710140C0F34200014320685C
:1028D000C16024E0092821D2DFE800F005091220B8
:1028E0000E2020201100FEF78BFA02E016E0FEF722
:1028F00099FA010004D112E0FEF7A6FAF9E71146B1
:10290000606A37F81000B1FBF0F1606801EB50012C
:10291000B1FBF0F0A0F1100141450AD901250120D9
:10292000A4F86A0024F8680F2846E6602661BDE82E
:10293000F08180B299E7000000800040F369FFCF8A
:10294000FFF4FF1100380140001002400044004035
:1029500000480040004C00400024F4007E2B00089A
:10296000FFFC0F002DE9F047994617460D46044637
:102970004FF00008089E33E0701C31D0FDF710FFC7
:10298000A0EB0900B04218D8BEB120680168490721
:1029900026D5802D24D0402D22D0C169C9430907F6
:1029A0000DD4082505622046FFF778FEC4F8905044
:1029B00084F884800120BDE8F0870320FBE7C0692C
:1029C000C04300050CD421684FF400600862204623
:1029D000FFF764FE2020C4F8900084F88480ECE7C0
:1029E0002068C06935EA000004D00020B842C3D096
:1029F0000020E0E70120F9E70148FEF7F5BF0000FD
:102A000014010020FEE70907090E002804DB00F18D
:102A1000E02080F80014704700F00F0000F1E02083
:102A200080F8141D70470000FDF7C8FEFFF70EFB8D
:102A3000FFF7FAF9FFF716FAFFF766FAFFF7A6FABB
:102A4000FFF7CAFA00F018F89FED0A0A07490020BC
:102A5000DFED072A0870B0EE402AF0EE401AB0EE23
:102A6000401AF0EE400A00F057F8FEE700000020A0
:102A70000000B4420000F04210B500211948FEF7F2
:102A8000C3FE04211748FEF7BFFE08211548FEF7D4
:102A9000BBFE0C211348FEF7B7FE00211248FEF7DB
:102AA000B3FE04211048FEF7AFFE9FED100A104858
:102AB000DFED102AF0EE400A80ED010A80ED020AF7
:102AC00080ED030A80ED040A80ED050AC0ED062AB8
:102AD000BDE81040B0EE401AF0EE401AB0EE402AC9
:102AE00000F01AB8300000207C0000200000B44242
:102AF0001400002000000C439FED051ADFED050ACD
:102B000040EE010ABCEEE00A10EE100A80B27047F7
:102B10001BC731410000FA4300B5B0EE413AF0EE78
:102B2000603AFFF7E9FF11490A685063B0EE630AA3
:102B3000FFF7E2FF0A689063B0EE430AFFF7DCFF9D
:102B40000A68D063B0EE610AFFF7D6FF096808642F
:102B5000B0EE420AFFF7D0FF05490A685063B0EEB5
:102B6000620AFFF7C9FF0968886300BD30000020D2
:102B70007C0000204FF04070E1EE100A7047010029
:102B800002000400060008000A000C0010002000EB
:102B9000400080000001010101030701000008045A
:102BA0000204080101010000000000000000010211
:102BB00003040607080900000000010203040000E6
:102BC000E02B0008000000201400000014020008A0
:102BD000F42B000814000020F40700003002000865
:102BE00000000000100000000100000000000000D4
:042BF0000024F400C9
:04000005080001D915
:00000001FF
