:020000040800F2
:10000000080800207902000843240008D31E0008D5
:1000100041240008EF040008052E0008000000003D
:10002000000000000000000000000000472400085D
:100030001D050008000000004524000849240008B0
:10004000930200089302000893020008930200083C
:10005000930200089302000893020008930200082C
:10006000930200089302000893020008930200081C
:10007000930200089302000893020008930200080C
:100080009302000800000000930200089302000899
:1000900093020008930200089302000893020008EC
:1000A00093020008930200089302000893020008DC
:1000B00093020008930200089302000893020008CC
:1000C00093020008930200089302000893020008BC
:1000D00093020008F92D000893020008930200081B
:1000E000930200089302000893020008930200089C
:1000F0009302000893020008930200080000000029
:1001000000000000930200080000000093020008B5
:100110009302000800000000C524000893020008B4
:10012000930200089302000893020008930200085B
:100130009302000800000000000000009302000885
:100140009302000893020008000000000000000075
:10015000000000000000000000000000000000009F
:1001600000000000000000000000000093020008F2
:1001700093020008000000000000000000000000E2
:1001800000000000930200080000000000000000D2
:10019000000000000000000000000000000000005F
:1001A0000000000000000000930200089302000815
:1001B0009302000893020008930200080000000068
:1001C0000000000093020008000000000000000092
:1001D000930200089302000800F002F800F03CF8D7
:1001E0000AA090E8000C82448344AAF10107DA4592
:1001F00001D100F031F8AFF2090EBAE80F0013F0A8
:10020000010F18BFFB1A43F001031847B44E00005A
:10021000D44E0000103A24BF78C878C1FAD85207EB
:1002200024BF30C830C144BF04680C607047000070
:100230000023002400250026103A28BF78C1FBD8EF
:10024000520728BF30C148BF0B6070471FB504F08C
:1002500002FE1FBD10B510BD00F014F91146FFF7E6
:10026000F5FF03F041FF00F032F903B4FFF7F2FFAE
:1002700003BC00F035F900000948804709480047F1
:10028000FEE7FEE7FEE7FEE7FEE7FEE7FEE7FEE746
:10029000FEE7FEE704480549054A064B70470000A3
:1002A000B5240008D9010008080200200808002031
:1002B000080400200804002053EA020C00F06980C2
:1002C0002DE9F04B4FF00006002B1FBFB3FA83F56A
:1002D00003FA05F424FA05F65E4012BF1643B2FA9B
:1002E00082F502FA05F4C5F120051EBF22FA05FCCD
:1002F00044EA0C04203556EA044C4FEA144418BF73
:10030000641C4FF000084FF00009904271EB030CA1
:1003100039D3002919BFB1FA81F701FA07F6B0FA0B
:1003200080F700FA07F6C7F120071EBF20FA07FC86
:1003300046EA0C062037B6FBF4FCA7EB0507103F96
:1003400007F01F0BCBF120060CFA0BFB2CFA06F67C
:1003500044BFB3460026202FA4BF5E464FF0000BDB
:100360005BEA060C08BF4FF0010B19EB0B09ABFB66
:10037000027C48EB0608C01B06FB02CC0BFB03CC3F
:1003800071EB0C01C1E70B46024641464846BDE809
:10039000F08B13B54FF000004FF00001AFF3008079
:1003A000BDE81C40704710B5203AC0F00B80B1E8A2
:1003B0001850203AA0E81850B1E81850A0E818509A
:1003C000BFF4F5AF5FEA027C24BFB1E81850A0E8A3
:1003D000185044BF18C918C0BDE810405FEA827CBD
:1003E00024BF51F8043B40F8043B08BF7047D207D4
:1003F00028BF31F8023B48BF11F8012B28BF20F875
:10040000023B48BF00F8012B70474FF0000200B5D7
:10041000134694469646203922BFA0E80C50A0E827
:100420000C50B1F12001BFF4F7AF090728BFA0E8D5
:100430000C5048BF0CC05DF804EB890028BF40F8A1
:10044000042B08BF704748BF20F8022B11F0804FE3
:1004500018BF00F8012B704770477047704710B500
:1004600000F008F8006810BD10B5044600F002F86E
:10047000046010BD00487047A80100200048704784
:10048000A80100207546FFF7F9FFAE460500694652
:10049000534620F00700854618B020B5FFF7FAFE56
:1004A000BDE820404FF000064FF000074FF0000875
:1004B0004FF0000B21F00701AC46ACE8C009ACE8F6
:1004C000C009ACE8C009ACE8C0098D46704710B55A
:1004D0000446AFF300802046BDE81040FFF7C5BEDC
:1004E00001491820ABBEFEE7260002007047FEE778
:1004F000B5EEC00AF1EE10FA02D29FED050A704780
:1005000010EE100A03498842F9DD9FED030A704797
:10051000000000000000344300003443704772B60E
:10052000FEE710B590F8253000210122022B03D000
:100530000421C163012122E003681C6824F00E0439
:100540001C60836C1C6824F480741C6003681C6845
:1005500024F001041C6090F84430046C03F01F0385
:1005600002FA03F36360D0E913345C60436D33B186
:100570001C6824F480741C60D0E916345C6080F838
:100580002520002280F82420084610BD70B590F880
:100590002520002401212346022A07D00422C26319
:1005A00080F8251080F82430012429E002681568BD
:1005B00025F00E0515600268156825F00105156027
:1005C000826C156825F48075156090F84420056CE0
:1005D00002F01F0201FA02F26A60D0E913255560A9
:1005E000426D32B1156825F480751560D0E9162585
:1005F000556080F8251080F82430816B01B1884760
:10060000204670BD2DE9F04FDFF82092002301262F
:100610000324A9F1040B85B00F2709F1040AABF1FB
:10062000040EFAE006FA03F52A407CD091F804C0E3
:100630000CF0030CBCF1010F02D0BCF1020F26D16B
:10064000D0F808C0CDF800C04FEA430C04FA0CF80B
:10065000CDF810C0DDF800C02CEA080CCDF800C0C1
:10066000D1F80C80DDF810C008FA0CF8DDF800C0F5
:1006700048EA0C08C0F80880D0F804C02CEA050C41
:100680000D79C5F300159D4045EA0C0545600D79CF
:10069000ED43AD070ED0C5684FEA430804FA08FCE5
:1006A00025EA0C05D1F808C00CFA08FC4CEA050C48
:1006B000C0F80CC00D7905F00305022D16D1DD0838
:1006C00000EB850CCDF808C0DCF820805D074FEA10
:1006D000D56C07FA0CF528EA05080D6905FA0CF542
:1006E000DDF808C045EA0805CCF8205005684FEA57
:1006F000430CCDF808C004FA0CFC25EA0C0591F86F
:1007000004C00CF00308DDF808C008FA0CF848EA49
:100710000508C0F800804D6815F4403F7CD0444D7A
:10072000D5F860C000E077E04CF0010CC5F860C07F
:100730002D6E23F0030C05F0010500953D4D654439
:100740000295AD684FEA837C4FEA1C7807FA08FCF3
:1007500025EA0C05B0F1904F06D0DFF8DCC060450B
:1007600005D14FF0010C20E04FF0000C1DE0DFF848
:10077000CCC0604502D14FF0020C16E0DFF8C0C0DB
:10078000604502D14FF0030C0FE0DFF8B8C06045C0
:1007900002D14FF0040C08E0DFF8ACC0604502D194
:1007A0004FF0050C01E04FF0060C0CFA08FC4CEA87
:1007B000050C029DC5F808C0D9F80050CC46D1F808
:1007C000048095435FEAC82800D51543CCF8005053
:1007D000DAF80050D446D1F8048095435FEA8828BF
:1007E00000D51543CCF80050DBF80050DC46D1F8BA
:1007F000048095435FEA883800D51543CCF8005053
:10080000DEF80050F446D1F8048095435FEAC8381A
:1008100000D51543CCF800505B1C0A6832FA03F58A
:100820007FF400AF05B0BDE8F08F00000804014080
:100830000010024000000140000400480008004889
:10084000000C00480010004800140048014880686F
:10085000704700000400002002488168426811448B
:10086000816070470400002010B50024032000F0D0
:1008700073F80F2000F008F808B1012401E000F03F
:1008800025F8204610BD000070B50E4E0546002428
:10089000706898B14FF47A71B1FBF0F00A490968B9
:1008A000B1FBF0F000F05EFD40B9102D06D2002241
:1008B0002946501E00F030F8356000E00124204643
:1008C00070BD000004000020100000200A4882B023
:1008D000016E41F001010166016E01F0010100911C
:1008E000816D41F080518165806D00F080500090F5
:1008F00002B000F0A1B8000000100240002809DB9F
:1009000000F01F02012191404009800000F1E02029
:10091000C0F8001170470000F0B40E4B1B680C4685
:10092000C3F30223C3F10705042D00D90425191DC3
:10093000072901D2002300E0DB1E012606FA05F19B
:10094000491E214099409E40761E16403143F0BC1E
:1009500002F071BA0CED00E0064900F007020868E9
:100960004FF6FF03184040EA0220034A1043086094
:10097000704700000CED00E00000FA052B492C4BFD
:100980000A6832214A432B4940B1B0F5007F08681C
:1009900029D020F4C06040F480602CE00868C0F3E7
:1009A0004120022804D051F8800F20F4807022E00A
:1009B000D1F8800020F48070C1F88000086820F42D
:1009C000C06040F400700860B2FBF3F0401C00E02F
:1009D000401E4A69520501D50028F9D148694005F1
:1009E0000AD503207047C0F34120022806D051F8F1
:1009F000800F40F48070086000207047D1F88000BC
:100A000040F48070C1F88000086820F4C06040F4B1
:100A100000700860B2FBF3F0401C00E0401E4A6921
:100A20005205DBD50028F9D1D8E7000010000020DE
:100A300040420F00007000400248816841F480414C
:100A400081607047007000402DE9F843044600685B
:100A500000269D4D00035ED5A86D0027C00008D478
:100A6000A86D40F08050A865A86D012700F0805067
:100A70000090DFF85892D9F8001041F48071C9F85D
:100A80000010FFF7E3FE804606E000BFFFF7DEFE42
:100A9000A0EB080002282BD8D9F80000C005F5D536
:100AA000D5F8900010F4407014D0216C814211D020
:100AB000D5F89000D5F8901020F4407041F48031C2
:100AC000C5F89010D5F8901021F48031C5F8901039
:100AD000C5F89000C00711D0FFF7B8FE804641F27C
:100AE000883907E0FFF7B2FEA0EB0801494501D9BC
:100AF00003260BE0D5F890008007F3D5D5F89000D9
:100B0000216C20F440700843C5F890001FB1A86D17
:100B100020F08050A8652078C00707D0D5F888005D
:100B2000616820F003000843C5F88800207880073A
:100B300007D5D5F88800A16820F00C000843C5F857
:100B400088002078400707D5D5F88800E16820F0B4
:100B500030000843C5F888002078000707D5D5F88D
:100B60008800216920F0C0000843C5F8880020787B
:100B7000800607D5D5F88800616920F440600843F5
:100B8000C5F888002078400607D5D5F88800A16907
:100B900020F440500843C5F888002078000607D5A7
:100BA000D5F88800E16920F440400843C5F8880082
:100BB0002088C00507D5D5F88800216A20F4403088
:100BC0000843C5F888002088800507D5D5F8880037
:100BD000616A20F440200843C5F888002088400559
:100BE0000FD5D5F88800A16A20F440100843C5F855
:100BF0008800A06AB0F5801F03D1E86840F4801037
:100C0000E860208800050FD5D5F88800E16A20F457
:100C100040000843C5F88800E06AB0F5800F03D1B2
:100C2000E86840F48010E8602088C0040FD5D5F84B
:100C30008800216B20F040700843C5F88800206BC5
:100C4000B0F1807F03D1E86840F48010E86020882C
:100C50004FF0006180040ED5D5F88800626B20F05B
:100C600040601043C5F88800606B884203D1E86893
:100C700040F48010E860208840040ED5D5F8880044
:100C8000A26B20F040601043C5F88800A06B88423A
:100C900003D1E86840F48010E860208800040FD594
:100CA000D5F88800E16B20F040500843C5F8880073
:100CB000E06BB0F1805F03D1E86840F48030E86019
:100CC0003046BDE8F883000000100240007000408C
:100CD0002DE9F0470E4605004FF0000725D0DFF85C
:100CE000AC81D8F8000000F00F00B0420CD2D8F868
:100CF000001021F00F013143C8F80010D8F80000AF
:100D000000F00F00B04210D12968614CC80741F2D1
:100D1000883A5AD06868DFF87C91032808D0022806
:100D200020682DD0400500282CDB0120BDE8F0878D
:100D300020688001F9D5E06800F00302E068C0F3A4
:100D40000310401C032A19D0534A00BFB2FBF0F035
:100D5000E268C2F306225043E268C2F34162521CC9
:100D60005200B0FBF2F0484517D9A06810F0F00F20
:100D70000CD0880711D5A86840B10EE0474AE5E7D6
:100D80008003D0E700F0B6F8484506D9A06820F007
:100D9000F00040F08000A0608027A068696820F023
:100DA00003000843A060FFF751FD814606E000BF45
:100DB000FFF74CFDA0EB090151453AD8A0686968DE
:100DC00000F00C00B0EB810FF2D12868810714D538
:100DD000400703D5A06840F4E060A06028780007D1
:100DE00005D5A06820F4605040F4E060A060A068E1
:100DF000A96820F0F000084304E0802F03D1A06828
:100E000020F0F000A060D8F80010404601F00F017B
:100E1000B14216D9016821F00F0131430160FFF79B
:100E200015FD074607E000BFFFF710FDC11B514548
:100E300001D903207AE7D8F8000000F00F00B04293
:100E4000F2D12878400705D5A068E96820F4E06071
:100E50000843A0602878000706D5A068296920F417
:100E6000605040EAC100A06000F044F8A1680C4A5C
:100E7000C1F30311515C01F01F01C840094908602A
:100E800009480068BDE8F047FFF7FEBC00200240BB
:100E90000010024000B4C4040024F40000127A00E0
:100EA000924E00081000002004000020054806496A
:100EB00000688968054AC1F30221515C01F01F01F5
:100EC000C84070471000002000100240A24E0008E9
:100ED0000548064900688968054AC1F3C221515C8A
:100EE00001F01F01C84070471000002000100240B0
:100EF000A24E0008184910B58868C0F3810217484F
:100F0000012A0BD08A684310C2F38102022A06D05C
:100F10008A68C2F38102032A03D0002010BD18465C
:100F200010BDCA6802F00304CA68C2F30312521C5F
:100F3000032C02D0B0FBF2F001E0B3FBF2F0CA6880
:100F4000C968C2F306225043C1F34161491C4900FC
:100F5000B0FBF1F010BD0000001002400024F400CE
:100F60002DE9F84304007AD02078F84DC00747D027
:100F7000A868E96800F00C0001F003010C2802D019
:100F8000082817D001E0032914D06068B0F5803F2D
:100F900017D0B0F5A02F286817D020F48030286033
:100FA000286820F4802028606068E0B1FFF74EFCDC
:100FB000064614E02868800322D560680028D2D055
:100FC0001EE0286840F48030EDE740F4802028607F
:100FD000F7E700BFFFF73AFC801B642870D8286849
:100FE0008003F7D50CE0FFF731FC064605E000BFB3
:100FF000FFF72CFC801B6428F0D828688003F7D406
:10100000207880074CD5A868E96800F00C0001F052
:1010100003010C2802D004280DD001E002290AD0D7
:10102000E068002828682BD040F480702860FFF723
:101030000DFC064619E02868400502D5E068002846
:1010400091D06868217C20F0FE4040EA0160686031
:10105000BF480068FFF718FC002800D120E072E1CB
:10106000FFF7F4FB801B0228B8D828684005F7D5A5
:101070006868217C20F0FE4040EA016068600FE073
:1010800020F480702860FFF7E1FB064605E000BF12
:10109000FFF7DCFB801B0228A0D828684005F7D4A6
:1010A0002078000729D560690028D5F8940013D06E
:1010B00040F00100C5F89400FFF7C8FB064606E0C3
:1010C00090E000BFFFF7C2FB801B022886D8D5F84E
:1010D00094008007F6D510E020F00100C5F89400D8
:1010E000FFF7B4FB064604E0FFF7B0FB801B0228C5
:1010F00078D8D5F894008007F6D42078400761D5D9
:10110000A86D0026C00008D4A86D40F08050A865E6
:10111000A86D012600F0805000908E480168C90536
:1011200011D40168804641F480710160FFF78EFBA5
:10113000074604E0FFF78AFBC01B022852D8D8F804
:101140000000C005F6D5A068012815D00528D5F8FF
:10115000900016D020F00100C5F89000D5F890005E
:1011600020F00400C5F89000A06841F28838B8B1BA
:10117000FFF76CFB07460EE0D5F8900040F0010049
:10118000F0E740F00400C5F89000F5E7FFF75EFBDC
:10119000C11B414526D8D5F890008007F6D50CE054
:1011A000FFF754FB074604E0FFF750FBC11B414526
:1011B00018D8D5F890008007F6D41EB1A86D20F09D
:1011C0008050A8652078800629D5A0690028D5F828
:1011D000980013D040F00100C5F89800FFF736FBE7
:1011E000064606E075E000BFFFF730FB801B0228D3
:1011F0006FD8D5F898008007F6D510E020F00100F0
:10120000C5F89800FFF722FB064604E0FFF71EFB37
:10121000801B02285DD8D5F898008007F6D4E069D5
:10122000F0B3A968C1F3810103295DD002282868C1
:1012300020F08070286003D0FFF708FB04464BE0E5
:10124000FFF704FB064604E0FFF700FB801B0228C3
:101250003FD828688001F7D4F4E908016FF00F0245
:1012600002EB01110843218A5204490802EB415163
:10127000A26841EA02210843217D4FF07E424908DD
:1012800002EB41610843217B40EAC160E968324AD0
:1012900011400843E860286840F08070286000E052
:1012A0005EE0E86840F08070E860FFF7CFFA04463F
:1012B00005E000BFFFF7CAFA001B022809D828681A
:1012C0008001F7D54CE000BFFFF7C0FA001B0228F1
:1012D00002D90320BDE8F88328688001F4D4E868C7
:1012E0001E490840E8603BE00128F3D0E868226A24
:1012F00000F00301914226D1616A00F0F002090179
:10130000103991421FD1A26A00F4FE41B1EB022FC5
:1013100019D194F82C2000F07841B1EBC26F12D1B2
:10132000218E00F4C00249084905A1F5001191423F
:1013300009D194F8341000F0C06049084906A1F1C1
:10134000007181420CD00120C4E70000001002406F
:1013500004000020007000400C809F01FCFFEEFEA6
:101360000020B7E710B5401EB0F1807F01D3012007
:1013700010BD4FF0E02460610F21601701F05BFDAC
:101380000020A06107202061002010BD7047704739
:101390007047704770477047F0B590F83C20012ABD
:1013A0003AD0012580F83C50022280F83D200368A5
:1013B0005A689C68194E1A4FB34201D0BB4204D1FF
:1013C00022F4700C4A6842EA0C02DFF858C002EAC4
:1013D0000C02D1F800C04CEA020CC3F804C0026849
:1013E000B2420DD0B2F1804F0AD00F4B9A4207D0D3
:1013F0000E4B9A4204D0BA4202D00D4B9A4204D10D
:10140000896824F080031943916080F83D500021E1
:1014100080F83C100846F0BD0220F0BD002C0140D1
:10142000003401408FFFFFFD000400400008004031
:1014300000400140704710B5040003D094F83D000F
:1014400010B107E0012010BD002084F83C002046C8
:1014500000F022F8022084F83D00211D206801F0F0
:1014600037F8012084F8480084F83E0084F83F00F3
:1014700084F8400084F8410084F8420084F8430076
:1014800084F8440084F8450084F8460084F8470056
:1014900084F83D00002010BD08B500680B49884263
:1014A00012D10B48816D41F010018165806D0022E1
:1014B00000F01000009001213620FFF72DFABDE862
:1014C00008403620FFF71ABA08BD0000001000409F
:1014D0000010024070472DE9F04104460068C668DC
:1014E00005694FF00007A90713D5B10711D5F91EFB
:1014F000016101202077206880698007204602D0A2
:10150000FFF7E8FF04E000F0F1F8204600F0D0F922
:101510002777680716D5700714D521686FF0040087
:101520000861022020772068806910F4407F2046FF
:1015300002D0FFF7CFFF04E000F0D8F8204600F01B
:10154000B7F92777280715D5300713D521686FF02D
:1015500008000861042020772068C06980072046C1
:1015600002D0FFF7B7FF04E000F0C0F8204600F01B
:101570009FF92777E80616D5F00614D521686FF095
:1015800010000861082020772068C06910F4407FAF
:10159000204602D0FFF79EFF04E000F0A7F82046A7
:1015A00000F086F92777E80708D0F00706D0216811
:1015B0006FF001000861204600F0FAF9280601D416
:1015C000A80408D5300606D521686FF402500861DA
:1015D0002046FFF7DCFEE80508D5300606D5216871
:1015E0006FF4807008612046FFF7D0FE680608D5CA
:1015F000700606D521686FF040000861204600F0B3
:10160000D8F9A80608D5B00606D521686FF02000E5
:1016100008612046FFF7BCFEE80208D5F00206D5B7
:1016200021686FF4801008612046FFF7B3FEA8021E
:1016300008D5B00206D521686FF400100861204675
:10164000FFF7A7FE680208D5700206D521686FF47F
:10165000800008612046FFF79EFE28020AD530026E
:1016600008D521686FF4000008612046BDE8F0410C
:10167000FFF7E0BEBDE8F08130B587B00446142125
:101680006846FEF7C2FE24680023164902224FF086
:101690009040B4F1804F15D0134DAC4210D1CC6CBA
:1016A00044F00104CC64C96C01F0010105915021A2
:1016B0008DE80E00CDE90332694600BFFEF7A2FFB8
:1016C00007B030BDCC6C44F00104CC64C96C01F0AF
:1016D000010105910F218DE80E000121CDE90331B3
:1016E0006946EBE70010024000040040704770B507
:1016F000044690F83C0000260D4601280BD001203E
:1017000084F83C000C2A4AD007DC82B1042A20D09D
:10171000082A06D131E0022070BD102A53D0142AC5
:1017200063D00126002084F83C00304670BD20685C
:1017300000F03AFF2068816941F00801816120686A
:10174000816921F004018161206881692A6911435E
:1017500011E0206800F076FF2068816941F40061A3
:1017600081612068816921F48061816120688169DB
:101770002A6941EA02218161D4E7206800F0AAFFCA
:101780002068C16941F00801C1612068C16921F088
:101790000401C1612068C1692A69114311E0206810
:1017A00000F0E0FF2068C16941F40061C161206878
:1017B000C16921F48061C1612068C1692A6941EA77
:1017C0000221C161AEE7206801F014F82068016DC4
:1017D00041F0080101652068016D21F004010165F7
:1017E0002068016D2A69114311E0206801F03AF880
:1017F0002068016D41F4006101652068016D21F4EC
:10180000806101652068016D2A6941EA0221016554
:1018100088E710B5040003D094F83D0010B107E04C
:10182000012010BD002084F83C00204600F022F882
:10183000022084F83D00211D206800F049FE0120AF
:1018400084F8480084F83E0084F83F0084F84000A3
:1018500084F8410084F8420084F8430084F844008E
:1018600084F8450084F8460084F8470084F83D0079
:10187000002010BD08B501680B48B1F1804F0BD0B6
:101880000A4A914207D1816D41F002018165806D64
:1018900000F00200009008BD816D41F001018165FA
:1018A000806D00F00100F5E70010024000040040E8
:1018B0007047000030B50446022269B1042912D0F5
:1018C000082917D00C291CD0102921D094F84300E6
:1018D000012824D0012030BD94F83E000128F9D120
:1018E00084F83E201DE094F83F000128F2D184F8EE
:1018F0003F2016E094F840000128EBD184F8402006
:101900000FE094F841000128E4D184F8412008E078
:1019100094F842000128DDD184F8422001E084F8E7
:1019200043200122206800F031FE194B206819493C
:10193000194A984209D0884207D0904205D0174DE5
:10194000A84202D0164DA84203D1456C45F400458B
:101950004564206898420CD0B0F1804F09D0114BFB
:10196000984206D0104B984203D0884201D0904252
:1019700007D181680D4A1140062906D0B1F5803F94
:1019800003D0016841F001010160002030BD00007A
:10199000002C01400034014000400140004401405F
:1019A000004801400004004000080040070001001A
:1019B0007047704790F88410012918D0012180F8F1
:1019C00084102421C0F8881001680A680B6823F08D
:1019D00001030B6022F00051002242660368196087
:1019E0002021C0F8881080F884201046704702201B
:1019F00070477047704770B5044690F8840001281E
:101A00001DD0012084F884002420C4F888002068B8
:101A10000568026822F0010202602068826822F0F4
:101A200060620A438260204600F054FF206805602F
:101A30002020C4F88800002084F8840070BD0220B3
:101A400070BD70B5044690F8840001281DD00120B7
:101A500084F884002420C4F888002068056802689F
:101A600022F0010202602068826822F060420A438C
:101A70008260204600F02EFF206805602020C4F818
:101A80008800002084F8840070BD022070BD70477B
:101A9000704770472DE9F04103680446D86919681A
:101AA0009A6840F60F0528424FF000054FF00206F5
:101AB0000AD187067ED501F0200702F0805C57EA44
:101AC0000C0777D0616F42E1B64FDFF8DCC21740F8
:101AD00001EA0C0C57EA0C0C6CD05FEAC07C0CD00D
:101AE0005FEAC15C09D54FF0010CC3F820C0D4F8FF
:101AF000903043F00103C4F89030830709D5D30731
:101B000007D023681E62D4F8903043F00403C4F871
:101B1000903043070AD5D30708D0266804233362E0
:101B2000D4F8903043F00203C4F8903003070CD58A
:101B300001F020033B4308D0266808233362D4F821
:101B4000903043F00803C4F8903003050BD54B01E7
:101B500009D526684FF400633362D4F8903043F01F
:101B60002003C4F89030D4F89030002B3DD080068C
:101B700009D501F0200002F08051084303D0616FC5
:101B800009B120468847D4F8900021688968490641
:101B900002D410F0280F2AD0204600F07FFF2068E2
:101BA000806840061ED52068083050E8001F21F0EC
:101BB000400100E021E040E80012002AF3D1D4F80F
:101BC000800078B179498163D4F88000FEF7DEFCAB
:101BD00000280AD0D4F88000816B00E02046BDE8E0
:101BE000F04108472046FFF754FFBDE8F08120464A
:101BF000FFF74FFFC4F89050F7E7D4F86CC02027E8
:101C0000BCF1010F7ED15FEAC06C7BD55FEAC16C8D
:101C100078D51020186220688068400651D5D4F825
:101C200080100A6850680004000C3ED0B4F85C30A4
:101C300083423AD9A4F85E000868006880062CD474
:101C4000216851E8000F20F4807041E80002002A6A
:101C5000F6D12068083050E8001F21F0010140E86B
:101C60000012002AF5D12068083050E8001F21F04A
:101C7000400140E80012002AF5D1C4F88C70E566F6
:101C8000216851E8000F20F0100041E80002002A0E
:101C9000F6D1D4F88000FEF744FC2667B4F85C0067
:101CA000B4F85E10401A81B207E0B4F85C108142CB
:101CB0009BD11068800698D526672046FFF799FECD
:101CC00093E7B4F85C00B4F85E10401A81B2B4F83F
:101CD0005E00002889D0002987D0226852E8000FD2
:101CE00020F4907042E80003002BF6D12D4BDB432B
:101CF0002068083050E8002F1A4040E8002CBCF162
:101D0000000F00E00EE0F3D1C4F88C70E566656763
:101D1000206850E8002F22F0100240E80023002B3A
:101D2000F6D1C9E7C60209D5560207D54FF480108F
:101D300018622046BDE8F041FFF7AABE03060AD5A7
:101D400001F0800302F40002134304D0A16F0029C4
:101D50007FF444AF49E7420611D54A060FD5204625
:101D6000016851E8002F22F0400241E80023002BD7
:101D7000F6D1C0F88870856700F0AAF835E702024E
:101D800006D54A0004D52046BDE8F041FFF77FBEE6
:101D9000C00195D5002993DA2046BDE8F041FFF750
:101DA00029BE000001000010200100048D2A000857
:101DB00010B5040003D0D4F8880010B107E001206A
:101DC00010BD002084F88400204600F027F824206D
:101DD000C4F888002068016821F001010160A06A50
:101DE00010B1204600F098FD204600F081FE012849
:101DF000E6D02068416821F4904141602068816804
:101E000021F02A0181602068016841F00101016030
:101E10002046BDE8104000F0E3BD000070B598B06A
:101E20000446142111A8FEF7F0FA44216846FEF793
:101E3000ECFA24492068884241D101200024CDE9F0
:101E400000046846FEF700FE08B1FEF768FB1E4876
:101E5000016E41F480410166016E01F480411691EA
:101E6000C16C41F00401C164C16C01F00401169120
:101E7000C16C41F00101C164C06C022500F0010099
:101E8000169007261020CDE91254CDE91446119082
:101E900011A90E48FEF7B6FB6802CDE91254CDE950
:101EA0001446119011A94FF09040FEF7ABFB0022B1
:101EB00002212520FEF730FD2520FEF71FFD18B07A
:101EC00070BD0000003801400010024000080048CA
:101ED0007047FEE710B5DFED281A04462DED068B9E
:101EE000B0EE419AB0EE608AF0EE409A21B101293D
:101EF00035D0022931D032E029EEA90A08EE080ACD
:101F000010EE100A02F036FF41EC100B01F07CFCE1
:101F100051EC100B02F0E2F99FED180A79EE408ABD
:101F200002F028FF41EC1A0B18EE900A02F022FF93
:101F300041EC100BB0EE4A1AF0EE6A1A01F0A4FA66
:101F40009FED0F1B51EC100B53EC112B02F052FCC8
:101F500002F0C4F901EE900A01E0DFED0B1AB0EED9
:101F6000491AF0EE480AB0EE690ABDEC068B20462D
:101F7000BDE8104000F00AB8000000000000704208
:101F800000000000DCA54C400000B4C270B505465E
:101F90002DED0C8BB0EE409AF0EE61BAB0EE41BA86
:101FA000B0EE608A19EE100A02F0E4FE41EC1A0B62
:101FB00018EE100A02F0DEFE41EC100BB0EE4A1AE9
:101FC000F0EE6A1A01F060FA9FED871B51EC100BDE
:101FD00053EC112B02F00EFC9FED851B53EC112BE3
:101FE00002F0AEF902F07AF9834C9FED840A60604A
:101FF0006BEE808A29EE090A08EE080A10EE100A34
:1020000002F0B8FE41EC100B01F0FEFB51EC100B9E
:1020100002F064F9064618EE900A02F0ABFE41ECBD
:10202000100B01F029FB9FED76CB51EC100B53EC1C
:102030001C2B02F0DFFB41EC190B304602F09AFE3C
:1020400053EC192B02F0ACFD02F048F90AEE900AAD
:1020500018EE900A02F08EFE41EC100B01F070FBBE
:1020600053EC1C2B51EC100B02F0C4FB41EC180B91
:102070009FED650A3BEE400A10EE100A02F07AFE70
:1020800053EC182B02F08CFD02F028F92AEEAAAAD4
:1020900009EE900A09EEA9AA1AEE100A02F06AFEE9
:1020A00041EC100B01F0B0FB51EC100B02F016F9F3
:1020B00008EE900A554918EE900A9FED559A88420D
:1020C00001DDF0EE498A9FED530A4FF07E56B7EEE0
:1020D00000BA70EE4A0A80EE808A18EE100AB0420A
:1020E00002DDB0EE4B8A06E018EE100A10F1814FC7
:1020F00001D9BFEE008A18EE100A02F03BFE41EC57
:10210000100B00F0A9FE51EC100B02F0E7F800EE06
:10211000100A9FED41DA20EE0D0ADFED400A30EEA5
:10212000C00A9FED3F8A1AEE900A30EE080A84ED4D
:10213000030A02F01FFE41EC1C0B19EE900A02F09C
:1021400019FE41EC100BB0EE4C1AF0EE6C1A01F0D7
:102150009BF951EC100B02F0C1F89FED320A09EE29
:10216000900A7AEE000A30EEC00A68EE890A80EE24
:10217000209A19EE100AB04201DDB0EE4B9A19EE2A
:10218000100A02F0F7FD41EC100B00F065FE51EC77
:10219000100B02F0A3F800EE100A012239EE800ABB
:1021A00020EE0D0A84ED020AD4ED030A30EE480A4F
:1021B00070EEC80A30EE200A3BEEC00A84ED040A35
:1021C00004EB820393ED000AFEF792F9521C83EDB3
:1021D000000A062AF4DDBDEC0C8B28461C22BDE863
:1021E00070400549FEF7DFB800000000DCA54C4058
:1021F00000000000008056401400002035FA8E3C9C
:102200000000000000005440000070420000C8427E
:102210000000C84200409C45E02E65420000344367
:102220000000B44200401C450D4808B5C16C41F0A7
:102230002001C164C16C01F020010091C16C41F02A
:102240000101C164C16C01F001010091C16C41F058
:102250000401C164C06C00F00400009008BD0000DF
:102260000010024010B58AB00024079408941C2185
:1022700068460994FEF7C9F822484FF08041016092
:10228000A921C0E9011444F61F61C0E903148021AB
:102290008161FFF7BEFA08B1FEF741F9079407A97B
:1022A00018480994FFF778F808B1FEF738F960206C
:1022B000CDE9000402940022694612480494FFF715
:1022C00016FA08B1FEF72BF9042269460D48FFF70C
:1022D0000EFA08B1FEF723F9082269460948FFF70C
:1022E00006FA08B1FEF71BF90C2269460548FFF70C
:1022F000FEF908B1FEF713F90248FFF7BDF90AB07D
:1023000010BD00003000002010B58AB000240794F2
:1023100008941C2168460994FEF777F81A48194971
:102320000160A921C0E9011444F61F61C0E903144A
:1023300080218161FFF76DFA08B1FEF7F0F807948C
:1023400007A911480994FFF727F808B1FEF7E7F845
:102350006020CDE900040294002269460A480494F2
:10236000FFF7C5F908B1FEF7DAF804226946064816
:10237000FFF7BDF908B1FEF7D2F80348FFF77CF983
:102380000AB010BD000400407C0000203EB50024CF
:102390001048009401940E490294016040F2A36138
:1023A000C0E9011440F2F311C16080218161FFF79F
:1023B00042F808B1FEF7B3F8009469460548029464
:1023C000FEF7EAFF002801D0FEF7A9F83EBD0000A5
:1023D00000100040C8000020184810B516490160E0
:1023E0004FF416514160002181600C22C160C0E9A8
:1023F00004128161C161016241628162FFF7D8FC10
:1024000008B1FEF78CF800210C48FFF71AFB08B161
:10241000FEF785F800210948FFF7EDFA08B1FEF74D
:102420007EF80648FFF7C6FA002803D0BDE8104042
:10243000FEF775B810BD00000038014014010020FF
:10244000FEE7FEE770477047FEF706BA00B593B0A7
:1024500038216846FDF7D9FF14210EA8FDF7D5FFF6
:102460000020FEF78BFA0220C10103914021049164
:102470000421CDE9080100905521CDE90A1007900B
:102480000C900D906846FEF76BFD08B172B6FEE742
:102490000F200E9003200F900020109011901290AA
:1024A00004210EA8FEF714FC002801D072B6FEE746
:1024B00013B000BD0248016841F47001016070472B
:1024C00088ED00E00148FFF706B80000C8000020D2
:1024D0002DE9F0430268264B264D274E274C4FF03E
:1024E0008049984207D0484505D0A84203D0B04261
:1024F00001D0A04203D122F070074A683A43204F2E
:10250000DFF880C0DFF8808098420DD048450BD0BE
:10251000A84209D0B04207D0A04205D0B84203D0AB
:10252000604501D0404503D122F44075CA682A4372
:102530004D6922F080022A4302608A68C2620A68FA
:102540008262984207D0A04205D0B84203D06045CD
:1025500001D0404501D1096901630121416101694F
:10256000C90703D0016921F001010161BDE8F083D1
:10257000002C0140000400400008004000340140ED
:1025800000400140004401400048014010B501F006
:102590001F030121046A99408C430462016A9A4036
:1025A0001143016210BD00002DE9F043056A026A83
:1025B00022F001020262436882691C4C25F0020588
:1025C00022400C6822F0030214438A68194E2A4301
:1025D000174D194FDFF864C0DFF86490A84207D0A8
:1025E000B04205D0B84203D0604501D0484506D17D
:1025F00022F00808CA6842EA080222F00402A8424F
:1026000007D0B04205D0B84203D0604501D048455C
:1026100005D14D6923F440731D438B692B434360FF
:102620008461496841630262BDE8F0838FFFFEFF69
:10263000002C0140003401400040014000440140B2
:1026400000480140F0B5056A026A22F010020262F9
:1026500042688369194C1B4E23400C6823F4407375
:1026600043EA042425F020038D6843EA0513144D42
:10267000A84201D0B04206D1CF6823F0800343EADC
:10268000071323F04003A8420AD0B04208D00E4DF1
:10269000A84205D00D4DA84202D00D4DA84207D149
:1026A0004D6922F4406242EA85028D6942EA850260
:1026B00042608461496881630362F0BDFF8FFFFE61
:1026C000002C014000340140004001400044014022
:1026D00000480140F0B5056A026A22F48072026285
:1026E0004368C269194C1B4E22400C6822F0030259
:1026F000144325F400728D6842EA0522144DA84265
:1027000001D0B04206D1CF6822F4006242EA07222B
:1027100022F48062A8420AD0B04208D00E4DA842EE
:1027200005D00E4DA84202D00D4DA84207D14D69EB
:1027300023F4405343EA05138D6943EA05134360CC
:10274000C4614968C1630262F0BD00008FFFFEFFF3
:10275000002C014000340140004001400044014091
:1027600000480140F0B5056A026A22F48052026214
:102770004268C369194C1B4E23400C6823F4407314
:1027800043EA042425F400538D6843EA0533144DCD
:10279000A84201D0B04206D1CF6823F4004343EAF7
:1027A000073323F48043A8420AD0B04208D00E4D2C
:1027B000A84205D00D4DA84202D00D4DA84207D128
:1027C0004D6922F4404242EA85128D6942EA85123F
:1027D0004260C461496801640362F0BDFF8FFFFE7F
:1027E000002C014000340140004001400044014001
:1027F0000048014030B5056A026A22F48032026264
:102800004268036D114C23400C681C4325F40033CF
:102810000D8943EA05430E4DA8420BD00D4DA84249
:1028200008D00D4DA84205D00C4DA84202D00C4D49
:10283000A84204D14D6922F4803242EA0522426066
:10284000046549688164036230BD00008FFFFEFFAC
:10285000002C014000340140004001400044014090
:102860000048014030B5046A026A22F48012026214
:102870004268036D114D24F400142B400D6843EAA7
:1028800005230D8944EA05540D4DA8420BD00D4D8A
:10289000A84208D00C4DA84205D00C4DA84202D049
:1028A0000B4DA84204D14D6922F4802242EA8522D0
:1028B000426003654968C164046230BDFF8FFFFE5A
:1028C000002C014000340140004001400044014020
:1028D0000048014030B5416EB9B102689168926814
:1028E000C1F342610B4B520F9C5CE50003F10804FD
:1028F000A25CB5FBF2F2A0F86A205A5C615CD200DF
:10290000B2FBF1F1A0F8681030BD0121A0F86A1007
:10291000F8E70000824E000890F82810090706D555
:1029200001684A68836B22F400421A434A6090F8B7
:102930002810C90706D001684A68C36A22F4003229
:102940001A434A6090F82810890706D501684A683A
:10295000036B22F480321A434A6090F8281049072A
:1029600006D501684A68436B22F480221A434A6004
:1029700090F82810C90606D501688A68C36B22F44E
:1029800080521A438A6090F82810890606D501689B
:102990008A68036C22F400521A438A6090F8281067
:1029A000490611D501684A68436C22F480121A4323
:1029B0004A60416CB1F5801F06D101684A68836C9A
:1029C00022F4C0021A434A6090F82810090606D57E
:1029D00001684A68C06C22F4002202434A607047D2
:1029E0002DE9F84300260446C0F89060FDF72EFF5D
:1029F0008046206800684FF0200500076FF07E4792
:102A000013D54346002229042046009700F0AAF976
:102A100058B1216851E8000F20F0800041E8000221
:102A2000002AF6D1C4F8885021E0206800684007E9
:102A300022D5434600224FF480012046009700F043
:102A400091F9C8B1216851E8000F20F4907041E875
:102A50000002002AF6D12068083050E8001F21F05B
:102A6000010140E80012002AF5D1C4F88C5084F826
:102A700084600320BDE8F883C4F88850C4F88C5003
:102A800044F86C6F666026760020F3E710B5806A24
:102A90000021A0F85E10FEF7FCFF10BD10B5026823
:102AA00052E8001F21F4907142E80013002BF6D188
:102AB0000E4B0268083252E8001F194042E8001429
:102AC000002CF6D1C16E012908D1016851E8002F10
:102AD00022F0100241E80023002BF6D12021C0F89B
:102AE0008C100021C166416710BD0000FEFFFFEFA2
:102AF0002DE9F0410446016880682269E3691043CA
:102B0000626900251A431043DFF82CC20A688B4B18
:102B10001A4002430A6020684168E26821F440518B
:102B2000114341602168A069614501D0226A1043C8
:102B30008A68834B1A4002438A602068C16A626ACD
:102B400021F00F011143C1627E4923687E488B4208
:102B50000DD1D0F8880010F0030006D0012855D020
:102B6000022842D003283FD152E001203DE07749BE
:102B70008B420BD1D0F8880010F00C0035D004281F
:102B800033D0082840D00C282ED141E070498B4228
:102B90000BD1D0F8880010F0300026D0102835D0A6
:102BA000202831D030281FD132E06A498B420BD126
:102BB000D0F8880010F0C00017D0402826D0802818
:102BC00022D0C02810D123E063450DD1D0F8880071
:102BD00010F4406009D0B0F5806F17D0B0F5006FE9
:102BE00012D0B0F5406F13D010205B495B4F002628
:102BF0004FF4004263453BD160B1022813D0042852
:102C00000BD0082872D10DE00220EEE70420ECE79B
:102C10000820EAE7FEF74AF901E0FEF76BF9010048
:102C200001D17CE01146606A37F810206768B1FB7B
:102C3000F2F007EB4703834270D8B0EB073F6DD843
:102C4000002308461946FDF737FB090241EA1061E7
:102C500002027808101871413A460023FDF72CFB58
:102C60003F4AA0F54071914258D82168C86056E0AB
:102C7000E3694FF6EF7893422CD109284ED2DFE872
:102C800000F00508114D0D4D4D4D1000FEF70EF9E9
:102C900001E0FEF71DF9010004D140E0FEF72AF93A
:102CA000F9E71146606A37F81000B1FBF0F0410017
:102CB000606801EB5001B1FBF0F0A0F1100141455B
:102CC0002CD84FF6F0710140C0F342000143206858
:102CD000C16024E0092821D2DFE800F005091220B4
:102CE0000E2020201100FEF7E1F802E016E0FEF7CA
:102CF000EFF8010004D112E0FEF7FCF8F9E7114605
:102D0000606A37F81000B1FBF0F1606801EB500128
:102D1000B1FBF0F0A0F1100141450AD901250120D5
:102D2000A4F86A0024F8680F2846E6602661BDE82A
:102D3000F08180B299E7000000800040F369FFCF86
:102D4000FFF4FF1100380140001002400044004031
:102D500000480040004C00400024F4006A4E000887
:102D6000FFFC0F002DE9F047994617460D46044633
:102D70004FF00008089E33E0701C31D0FDF766FD6F
:102D8000A0EB0900B04218D8BEB12068016849071D
:102D900026D5802D24D0402D22D0C169C9430907F2
:102DA0000DD4082505622046FFF778FEC4F8905040
:102DB00084F884800120BDE8F0870320FBE7C06928
:102DC000C04300050CD421684FF40060086220461F
:102DD000FFF764FE2020C4F8900084F88480ECE7BC
:102DE0002068C06935EA000004D00020B842C3D092
:102DF0000020E0E70120F9E70148FEF74BBE0000A4
:102E000014010020FEE703B401984100009850EA45
:102E1000C12018BF04204A0D18BF40F0010040F245
:102E2000FF72B2EB515F08BF40F00200012808BFFB
:102E3000052002B070470907090E002804DB00F1E5
:102E4000E02080F80014704700F00F0000F1E0204F
:102E500080F8141D7047000010B5B94A2DED020B23
:102E60002DED0C8B82B00F9921F000409FEDB6CB79
:102E700090422CDBA0F140530E9AA3F17F631A43DA
:102E80000FD0B349884202DC16D10E98A0B19DED57
:102E90000E0B02B0BDEC0C8B02B0BDE8104001F08F
:102EA000DBB80029C1BF9FEDAC0B02B0BDEC0C8BB1
:102EB00002B0C8BF10BD16E00120FDF7D5FA02B080
:102EC000BDEC0C8B02B0BDE8104001F0D9B8A44AAB
:102ED0009FEDA59B9FEDA6AB90425EDAA6499FEDC4
:102EE000A8CB814208DBB0EE4C0AF0EE6C0A02B0CF
:102EF000BDEC0C8B02B010BD9DED0E0B53EC102BF6
:102F000051EC100B01F076FC41EC180B9E480621A9
:102F1000B0EE480AF0EE680A784400F089FF53ECFE
:102F2000182B51EC100B01F065FC41EC1B0B974882
:102F3000B0EE480AF0EE680A0421784400F078FF09
:102F400053EC182B51EC100B01F054FC53EC192BE3
:102F500001F0F6F941EC100B51EC1B0B53EC102B6C
:102F600001F096FA41EC100B53EC102B9DED0E0B7B
:102F700051EC100B01F03EFC53EC1A2B01F038FD24
:102F80009DED0E1B53EC112B01F032FD53EC1C2B6D
:102F900001F02EFD41EC100BA9E79FED7D8B9FED1D
:102FA0007EBB9DED0E0B002953EC192B51EC100B41
:102FB00052DA01F0C5F953EC182B01F01BFC41EC7F
:102FC000180B77480621B0EE480AF0EE680A7844FC
:102FD00000F02EFF53EC182B51EC100B01F00AFC03
:102FE00041EC1D0B6F48B0EE480AF0EE680A042170
:102FF000784400F01DFF53EC182B51EC100B01F03E
:10300000F9FB53EC192B01F09BF941EC190B51EC36
:10301000180B01F01FF941EC180B53EC192B51EC74
:103020001D0B01F035FA53EC182B01F0E3FB53ECC8
:103030001A2B01F0B5FD41EC100B51EC180B53ECC1
:10304000102B01F07DF953EC1B2B01F0D3FB53EC5B
:103050001C2B01F0CDFC6DE001F0CAFC53EC182BE9
:1030600001F0C8FB41EC180B01F0F4F841EC1A0B2D
:1030700000208DED00AB00909DED000B51EC1A0B84
:1030800053EC102B01F05CF99DED000B41EC1C0B97
:1030900053EC102B51EC100B01F0ACFB53EC182B44
:1030A00001F0A6FC53EC1C2B01F0F2F941EC1C0BD7
:1030B0003D48B0EE480AF0EE680A0621784400F078
:1030C000B7FE53EC182B51EC100B01F093FB41ECC5
:1030D0001D0B3648B0EE480AF0EE680A0421784429
:1030E00000F0A6FE53EC182B51EC100B01F082FB04
:1030F00053EC192B01F024F941EC100B51EC1D0B92
:1031000053EC102B01F0C4F953EC1A2B01F072FBB5
:1031100053EC1C2B01F014F941EC100B53EC102B69
:103120009DED000B51EC100B01F00AF953EC1B2B39
:1031300001F060FB41EC100BD9E60000000000003C
:103140000000F03F00000000182D4454FB2109400E
:103150000000F07F00000000000000000000000000
:103160000000E03F00000000000000000000F03F11
:10317000075C143326A6913C0000603C0000000070
:10318000182D4454FB21F93F941F0000A21F00009A
:10319000000000000000E03F0000000000000040D0
:1031A000DE1E0000EC1E0000F01D0000FE1D0000F1
:1031B00070B59B482DED020B2DED068B079D25F07C
:1031C0000044A04218DC9748844202DC0AD10698E9
:1031D00040B19DED060BBDEC068B02B0BDE8704022
:1031E00000F03ABF002DCCBF9FED8F0B9FED900BF1
:1031F000BDEC068B02B070BD8F48A04215DD8F4834
:10320000A042D8BF4FF0FF3458DD9DED060B51ECC6
:10321000100BFFF7F8FD042808BF00F041FF9DEDFB
:10322000060BBDEC068B02B070BD9DED060B51EC9C
:10323000100B00F04DFFCDE9060181489FED828B18
:10324000A0423CDD8248A0421FDD00249FED82ABFE
:103250009DED060B53EC1A2B51EC100B01F070F89E
:103260009DED060B41EC190B53EC1A2B51EC100B96
:1032700001F0C0FA53EC182B01F092FC53EC192B1F
:1032800001F006F9CDE9060149E09DED060B0124A8
:1032900053EC182B51EC100B01F052F89DED060B7E
:1032A00041EC190B53EC182B51EC100B01F078FC8E
:1032B00053EC192B01F0ECF8CDE906012FE068483A
:1032C000A0421FDD02249FED689B9DED060B53EC91
:1032D000192B51EC100B01F08DFA53EC182B01F067
:1032E0002FF89DED060B41EC180B53EC192B51EC0C
:1032F000100B01F055FC53EC182B01F0C9F8CDE987
:1033000006010CE09DED060B032453EC102B9FED02
:10331000580B51EC100B01F0BBF8CDE906019DED07
:10332000060B53EC102B51EC100B01F063FA41EC3F
:10333000180B53EC182B01F05DFA41EC190B4E48B9
:103340000621B0EE490AF0EE690A784400F070FDFB
:1033500053EC182B51EC100B01F04CFA41EC180B0C
:103360004648B0EE490AF0EE690A0521784400F0BB
:103370005FFD53EC192B51EC100B01F03BFA41ECC3
:10338000100B51EC180B53EC102B002C0EDA00F044
:10339000D7FF9DED061B53EC112B01F02BFA9DED91
:1033A000061B53EC112B01F023FB35E000F0C8FFA6
:1033B0009DED061B53EC112B01F01CFA41EC100B98
:1033C0002F48784400EBC40090ED001B51EC100B2B
:1033D00053EC112B01F0E4FB9DED061B53EC112B7C
:1033E00001F0DEFB41EC100B2648784400EBC400F2
:1033F00090ED001B51EC100B53EC112B01F0F8FA7F
:1034000041EC100B002DA2BFBDEC068B02B070BDCD
:1034100051EC100B00F055FF41EC100B01E70000E0
:10342000000010440000F07F182D4454FB21F93FA8
:10343000182D4454FB21F9BF0000DC3F0000203E62
:103440000000F33F00000000000000000000F03F1B
:103450000000E63F00000000000000000000004007
:103460000080034000000000000000000000F83F62
:10347000000000000000F0BF1A1C0000D01B00007C
:103480005A1B0000121B000070B56B4E2DED040B93
:103490002DED028B82B0DDF81CC0DDE905235C4216
:1034A0002CF000411C4341EAD474049D22F00040FA
:1034B000B44205D86C422C4340EAD474B4420BD9D0
:1034C0009DED061B9DED040B02B0BDEC028B04B01C
:1034D000BDE8704000F0CABDACF14054A4F17F6477
:1034E0001C430BD0022404EAAC7444EAD2740543B2
:1034F0009FED538B9FED542B07D015E09DED040BF2
:1035000051EC100B00F0DCFD42E0002C11BF012C4F
:103510009DED040B02B0BDEC028B04BF04B070BD86
:10352000022C38D0032C3BD00B439FED491B9FED61
:103530004A0B0AD0B14218D1B04209D121F08041E2
:1035400020F08040079105900FE0002A15DA10E086
:10355000434B7B44002C08BF93ED000B0DD0012C96
:1035600010D0022C17D0032C1AD0B0421DD1002A43
:1035700003DAB0EE410AF0EE610A02B0BDEC028B54
:1035800004B070BD93ED000B51EC100B00F099FEF0
:1035900041EC100BF1E7B0EE480AF0EE680AECE7F8
:1035A000B0EE420AF0EE620AE7E7401A00153C2846
:1035B000C8BF8DED000B19DCBCF1000FBEBF10F1D0
:1035C0003C0F9FED290B8DED000B0FDB9DED060BE6
:1035D00053EC102B9DED040B51EC100B00F058FF39
:1035E00000F076FD00F06CFDCDE90001002C08BF75
:1035F0009DED000BC1D0012C10D0022C9FED1C0BB7
:1036000053EC102B9DED000B51EC100B0DD001F085
:10361000C7FA53EC182B01F0C3FAB9E7019880F010
:10362000004001909DED000BA7E701F0B9FA53ECC3
:10363000182B01F0DDF9ABE70000F07F000000007F
:10364000182D4454FB210940182D4454FB2109C076
:10365000182D4454FB21F9BF182D4454FB21F93F88
:10366000721A0000000000000000000000000000CE
:10367000075C143326A6A13C10B52F499FED2C1BE7
:103680002DED020B84B0059820F000408842D8BF91
:103690009DED040B2DDD2949884209D1049840B9DC
:1036A0004FF00100FCF7E0FE00F0EAFC06B010BDB0
:1036B00005DB9DED040B00F0CFFC06B010BD6846A5
:1036C0009DED040B00F0E0F810F0030004BF9DED49
:1036D000021B9DED000B0CD001280ED09DED021BAE
:1036E0009DED000B022817D0012000F01DFC06B054
:1036F00010BD00F0E5FA06B010BD9DED021B9DED7A
:10370000000B012000F010FC51EC100B00F0D9FD73
:1037100006B041EC100B10BD00F0D2FA51EC100BCA
:1037200000F0CFFD06B041EC100B10BD0000000012
:103730000000000000000000FB21E93F0000F07FD6
:1037400010B52F499FED2C1B2DED020B84B0059871
:1037500020F000408842DCBF00209DED040B32DDEC
:103760002849884209D1049840B94FF00100FCF77C
:103770007BFE00F085FC06B010BD05DB9DED040B63
:1037800000F06AFC06B010BD68469DED040B00F029
:103790007BF810F0030011D0012818D09DED021B1A
:1037A0009DED000B02281AD000F08AFA51EC100BA4
:1037B00000F087FD06B041EC100B10BD9DED021B23
:1037C0009DED000B012000F0AFFB06B010BD9DED9C
:1037D000021B9DED000B00F073FA06B010BD012036
:1037E00000F0A2FB51EC100B00F06BFD06B041ECB9
:1037F000100B10BD000000000000000000000000E1
:10380000FB21E93F0000F07F00B52DED048BB0EE09
:10381000409AF0EE609A83B051EC190B01F0F4F885
:1038200041EC180B18EE100A18EE901A8DED008B73
:10383000002818BF0120084320F00040C0F17F603D
:1038400000F1E040C00F14D019EE101A19EE900AE2
:103850008DED009B002918BF0121084320F0004096
:10386000C0F17F6000F1E040C00F04BF0120FCF711
:10387000FBFDB0EE480A03B0F0EE680ABDEC048B25
:1038800000BD0000000000002DE9F14F04462DEDC1
:10389000020B2DED088B8AB09FEDE70B80ED020B3C
:1038A000139EE74826F0004585420ADC9DED120B89
:1038B000002084ED000B0AB0BDEC088B03B0BDE81E
:1038C000F08FE0489FEDE0AB9FEDE1BBA84247DD04
:1038D000E14F9FEDE39B9FEDE48B9DED120B53ECCD
:1038E0001A2B51EC100B002E1CDD01F059F941ECA4
:1038F000100BBD4208D053EC1B2B51EC100B01F008
:103900004FF9C4E900010BE053EC192B51EC100BFB
:1039100001F046F953EC182B01F042F9C4E900011B
:103920000120C8E700F00CFD41EC100BBD4208D0AF
:1039300053EC1B2B51EC100B00F002FDC4E900010D
:103940000BE053EC192B51EC100B00F0F9FC53EC8D
:10395000182B00F0F5FCC4E900014FF0FF30AAE796
:10396000C348A84279DB9DED120B51EC100B00F01F
:10397000AFFB41EC180B9FEDC00B53EC102B00F08C
:1039800039FF9FEDBF1B53EC112B00F0D9FC00F069
:10399000D7FE074600F003FF41EC190B53EC1A2B3E
:1039A00000F028FF53EC182B01F022F841EC180B23
:1039B00053EC1B2B51EC190B00F01CFFDFF8C8A2D5
:1039C00041EC100B4FEA15580125FA4453EC102B2B
:1039D00051EC180B01F0E4F8032DC4E900013DD0CF
:1039E000C1F30A5005EB4511A8EB000011398142E3
:1039F00034DA0AEB051BB0EE48AA9BED000BF0EEA3
:103A000068AA53EC102B51EC190B00F0F3FE41ECBB
:103A10001B0B51EC1A0B53EC1B2B01F0C1F841ECC2
:103A2000180B51EC1A0B53EC182B01F0B9F853ECAE
:103A30001B2B01F0B5F89BED020B41EC1A0B53EC7C
:103A4000102B51EC190B00F0D5FE53EC1A2B01F0A2
:103A5000A7F841EC100B6D1CB8E70EE0002EA8BFD4
:103A60003846BFF628AF94ED000B51EC100B00F078
:103A700028FCC4E9000178421DE7C6F3130040F4B6
:103A8000801EC6F30A50A0F2F530471100F01F0562
:103A9000C5F12000DDF848B008900020069007909E
:103AA0000520EC467949002D07EB0002794408BF58
:103AB00051F8221009D051F8223001EB8201AB40BD
:103AC0004A68089922FA01F11943A1FB0E26A1FBCD
:103AD0000B131A449A4234BF0123002303EB060858
:103AE0000CEB8003D3E901A60E448E4234BF0121C2
:103AF000002192448A4411B1924502D903E09245D3
:103B000001D2012100E00021C3E901A641444CF8A3
:103B10002010011EA0F10100C4DC029800F1005049
:103B2000850F0298DDE903678000DDF8148000F05E
:103B300036FE41EC1A0B304600F048FE9FED541B58
:103B400053EC112B00F056FE41EC1B0B384600F0F5
:103B50003DFE9FED511B53EC112B00F04BFE41EC51
:103B6000180B404600F032FE9FED4D1B53EC112B1D
:103B700000F040FE41EC190B51EC180B53EC192BE3
:103B800000F0DEFB53EC1B2B00F0DAFB53EC1A2B9E
:103B900000F0D6FBCDE90801002008909DED080B50
:103BA00053EC1A2B51EC100B00F0FAFF53EC1B2BCB
:103BB00000F0F6FF53EC182B00F0F2FF53EC192B3A
:103BC00000F016FF9FED381B53EC112B00F012FE96
:103BD0009FED370B41EC180B53EC102B9DED080BB0
:103BE00051EC100B00F006FE53EC182B00F0A8FB74
:103BF0009FED310B41EC180B53EC102B9DED080B96
:103C000051EC100B00F0F6FD53EC182B00F098FB74
:103C100041EC100B139810F0004F06D06D4251ECA0
:103C2000100B00F04EFB41EC100B284684ED000B0E
:103C300041E600000000000000000000000000005D
:103C4000FB21E93F7CD9024000004054FB21F93FB1
:103C50003163621A61B4D03DFB21F93F00000000DE
:103C60000000601A61B4D03D7370032E8A19A33B23
:103C7000FB2139410000000083C8C96D305FE43F7B
:103C8000000000000000E03F021600005015000098
:103C9000000000000000103E000000000000103C8A
:103CA000000000000000103A182D4454FB21F93D9B
:103CB0003326A611460B113C00000054FB21F93DB0
:103CC00010B52DED040B2DED088B82B0B0EE419AAE
:103CD000F0EE619A0B9820F000449FED4BABB4F1ED
:103CE000795F11DA9DED0A0B51EC100B00F028FD05
:103CF000002801BFB0EE4A0AF0EE6A0A02B0BDEC3D
:103D0000088B04BF04B010BD9DED0A0B53EC102BC3
:103D100051EC100B00F06EFD41EC180B3C480621F5
:103D2000B0EE480AF0EE680A784400F081F853ECEF
:103D3000182B51EC100B00F05DFD9DED0A0B41ECD2
:103D40001B0B53EC192B51EC100B00F053FD41EC05
:103D5000190B53EC1B2B51EC180B00F04BFD53ECE3
:103D6000192B00F01DFF9FED2C0B41EC190B53ECB0
:103D7000102B51EC180B00F03DFD41EC100B2848C6
:103D8000844210DA53EC192B51EC100B00F008FFB1
:103D900053EC1A2B00F02CFE41EC100B02B0BDECE2
:103DA000088B04B010BD1F48A042BCBF9FED1E1B76
:103DB0008DED001B06DBA4F50010019000200090A3
:103DC0009DED001B51EC100B53EC112B00F0E8FEA5
:103DD0009DED000B41EC180B53EC102B51EC1A0B22
:103DE00000F0DEFE41EC1A0B53EC192B51EC180BD2
:103DF00000F0D6FE53EC1A2B00F0FAFD41EC100B4C
:103E0000CCE7000000000000000000000000F03FD0
:103E10006C12000000000000000000000000E03F05
:103E20003333D33F0000E93F000000000000D23FE1
:103E300070B504462DED028B4D1E00EBC500B0EEB3
:103E4000408AF0EE608A90ED000B35F0060017D046
:103E500053EC182B51EC100B00F0CCFC41EC100B88
:103E60006D1E04EBC50090ED001B51EC100B53ECE4
:103E7000112B00F065FA41EC100B35F00600E7D18C
:103E8000022D36D0042D1CD0062D1CBFBDEC028B9C
:103E900070BD53EC182B51EC100B00F0ABFC94ED03
:103EA0000A1B53EC112B00F04BFA53EC182B00F0CB
:103EB000A1FC94ED081B53EC112B00F041FA41ECEE
:103EC000100B53EC182B51EC100B00F093FC94EDFD
:103ED000061B53EC112B00F033FA53EC182B00F0B7
:103EE00089FC94ED040B53EC102B00F029FA41EC03
:103EF000100B53EC182B51EC100B00F07BFC94EDE5
:103F0000021B53EC112B00F01BFA53EC182B00F0A2
:103F100071FC94ED001B53EC112B00F011FABDEC79
:103F2000028B41EC100B70BD31B504462DED040B36
:103F30002DED0A8BB0EE41BAF0EE61BA0B989DED13
:103F40000A0B20F00040B0F1795F0DDA51EC100B54
:103F5000FEF759FF042808BF00F0A2F89DED0A0BF8
:103F6000BDEC0A8B05B030BD53EC102B51EC100B9F
:103F700000F040FC41EC180B9DED0A0B53EC182BA4
:103F800051EC100B00F036FC41EC190B2C48B0EE54
:103F9000480AF0EE680A05217844FFF749FF9FEDD3
:103FA0002ACBB0EE40AAF0EE60AA9CB353EC1C2BD7
:103FB00051EC190B00F01EFC41EC1C0B53EC1A2BBE
:103FC00051EC190B00F016FC9FED210B41EC190B85
:103FD00053EC102B51EC1B0B00F00CFC53EC192B89
:103FE00000F0DEFD53EC182B00F004FC53EC1B2B0F
:103FF00000F0D6FD53EC1C2B00F0D2FD9DED0A1B0A
:1040000053EC112B00F0F4FCBDEC0A8B05B041EC35
:10401000100B30BDFFE753EC1A2B51EC180B00F0DE
:10402000E9FB53EC1C2B00F08BF953EC192B00F03F
:10403000E1FB9DED0A1B53EC112B00F081F9E3E746
:10404000FC10000000000000495555555555C5BFEE
:10405000000000000000E03F10B553EC102B51ECC5
:10406000100B00F06DF941EC100B10BD10B553ECC6
:10407000112B51EC100B00F063F941EC100B10BD4B
:104080009FED050B10B553EC102B51EC100B00F00D
:10409000FFF941EC100B10BD000000000000000013
:1040A0009FED050B10B553EC102B51EC100B00F0ED
:1040B000A1FB41EC100B10BD00000000000000103F
:1040C00010B541EC100BFFF773F851EC100B10BD5D
:1040D00082B0CDE9000121F0004001909DED000B80
:1040E00002B051EC100B7047FCF7BEFBFEF7AEF9C7
:1040F000FEF79AF8FEF7B6F8FEF706F9FEF746F96E
:10410000FEF76AF900F012F805490120B2EE041A30
:104110000870DFED040A9FED040A00F085F8FEE761
:1041200000000020000000000000484210B50021FF
:104130001948FDF7BFFB04211748FDF7BBFB082119
:104140001548FDF7B7FB0C211348FDF7B3FB002121
:104150001248FDF7AFFB04211048FDF7ABFB9FEDC4
:10416000100A1048DFED102AF0EE400A80ED010A37
:1041700080ED020A80ED030A80ED040A80ED050A55
:10418000C0ED062ABDE81040B0EE401AF0EE401A2D
:10419000B0EE402A00F01AB8300000207C00002069
:1041A0000000B44214000020000016439FED051AE1
:1041B000DFED050A40EE010ABCEEE00A10EE100A3F
:1041C00080B270471BC731410000FA4300B5B0EE22
:1041D000413AF0EE603AFFF7E9FF11490A6850638F
:1041E000B0EE630AFFF7E2FF0A689063B0EE430A9D
:1041F000FFF7DCFF0A68D063B0EE610AFFF7D6FF75
:1042000009680864B0EE420AFFF7D0FF05490A6862
:104210005063B0EE620AFFF7C9FF0968886300BD0A
:10422000300000207C00002000B587B001466846C1
:10423000FDF750FE1C2269460548FCF7B4F8044817
:10424000001D90EC060A07B05DF804EBFFF7BEBF57
:104250001400002000B52DED048B83B041EC190B48
:1042600000F0D2FB41EC180B18EE100A18EE901A71
:104270008DED008B002818BF0120084320F000407E
:10428000C0F17F6000F1E040C00F14D019EE101AA9
:1042900019EE900A8DED009B002918BF01210843FB
:1042A00020F00040C0F17F6000F1E040C00F04BF8B
:1042B0000120FCF7D9F851EC180B03B0BDEC048BCE
:1042C00000BD81F00041704780F00040704721F050
:1042D0000041704720F000407047000021F000428C
:1042E000A2F16052B2F5801F01F0004328BFD2F165
:1042F0007F6C0BD95FEA001C43EAC20242EB5070AC
:1043000018BF704728BF20F001007047B2F5801F2A
:10431000BCBF184670474FEA410C1CF5001F02D283
:10432000084600F09DBD70B500F00EFB000000894E
:10433000FFF7F6BF4FF00040A0F580007047000087
:1043400010B591EA030F48BF83F0004300F13084B9
:10435000841A71EB030C05D2121943EB0C03001BFA
:1043600061EB0C01DFF824E14FEA1154A4EB135C7C
:104370001EEA430F18BF9EEA445F73D023EA0E0380
:10438000DCF1200E21EA045143F4801332D322FAE7
:104390000CFE10EB0E0023FA0CFE41EB0E01CCF1EB
:1043A000200E03FA0EFE10EB0E0051F10001B1F5E4
:1043B000801FCCF1200E32D201EB045112FA0EF222
:1043C000BDE8104058BF7047401C38BF5FEA42024A
:1043D00018BF7047002814BF20F0010041F1000110
:1043E0004FEA410313F5001F38BF7047A1F1C041E8
:1043F00000F0F8BA012A43EB0302ACF1200CDCF127
:104400001F0E32BF4FF0000E23FA0CF310EB030027
:1044100041EB0451B4EB115FD0D0A1EB045101F595
:10442000801149085FEA300001EB04510ED350F1CE
:10443000000038BF12FA0EFE08D1BDE81040C9E7EF
:10444000401C38BF5FEA4202CAD1C3E7BDE8104052
:104450004FEA410313F5001F38BF7047A1F1C04177
:1044600000F0C0BA9EEA445F08D011EA5E0FBDE8D2
:10447000104004BF01F0004100207047BDE810402B
:1044800070B500F061FA00BF64FBBE3E0000E0FFC3
:104490002DE9C04130B4DFF8A0C23CEA111418BFC6
:1044A0003CEA131400F0EC8081EA03051CEA1114C5
:1044B00044EAD57418BF1CEA131500F0C780A4EBBA
:1044C00005044FF0004545EAC12145EAC32341EA0E
:1044D000505143EA525304F17F74994204F5003479
:1044E0004FEAC0204FEAC22208BF904200F09C80F1
:1044F0004FEA13650FF24016765D4FEA134506FB4F
:1045000005F7C7F1807706FB07F74FEAD737A7FB18
:1045100003687642C8F58038A7FB06CE38BFA8F1FD
:10452000010807FB08E64FF0000EA6FB028CE6FB35
:1045300003CEDCF1000CCEF1004E38BFAEF1010E1F
:10454000A6FB0C584FF000074FF00005E6FB0E8766
:10455000A1FB08C6A0FB07CE16EB0E0645F1000531
:10456000E1FB076515F1E04E7EBFA4F580345FEAFC
:1045700046066D4116F1800745F100054FEA172701
:104580004FEA066647EA0567A6F1DE46B6F1805FA8
:104590004FEA15251FD9384624F0010C05EBC471EC
:1045A000BCF1FE6F01EB0C1102D8F0BCBDE800813C
:1045B00024425CBF01F5801E9EEAC47F02D4F0BC99
:1045C000BDE80081244238D4F0BCA1F1C041BDE86F
:1045D000004100F007BA4FEAD22242EA43524FEAC2
:1045E000D323A7FB02864FEAD02040EA415007FBC5
:1045F00003661EEA0E0F4FEAD12105FB026658BF83
:10460000A6EB0056B6EB00564FEA520E4EEAC37EBA
:1046100018EB0E0E56EB530EBDD518EB02085E419B
:104620007F1C55F10005B6E74FF480154FF00007E9
:104630004FF000064FF00008ADE7F0BC4FF000006F
:1046400001F1C04101F00041BDE8008111EA0C1FF9
:104650000CEA131500D00CE013EA0C1F00F02580C3
:104660004FF00000F0BC81EA030101F00041BDE819
:104670000081F0BCBDE8004181EA030100F0B2B95D
:10468000F0BCBDE8004170B500F05EF9097EFC3E6B
:1046900000F007B881EA03014FF0000001F000418B
:1046A000704781EA030100F09DB9F0BCBDE800410C
:1046B0004FF0000021497047FFFDFBF9F7F5F4F2D8
:1046C000F0EEEDEBE9E8E6E4E3E1E0DEDDDBDAD8AD
:1046D000D7D5D4D3D1D0CFCDCCCBCAC8C7C6C5C40B
:1046E000C2C1C0BFBEBDBCBBBAB9B8B7B6B5B4B322
:1046F000B2B1B0AFAEADACABAAA9A8A8A7A6A5A40D
:10470000A3A3A2A1A09F9F9E9D9C9C9B9A999998D0
:104710009797969595949393929191908F8F8E8E73
:104720008D8C8C8B8B8A8989888887878685858400
:1047300084838382828181800000FF070000F87FEC
:104740004FEA41034FEA5353A3F58063D3F11E03AD
:10475000C8BFD3F1210C0CDD4FF0004242EAC12268
:1047600042EA505232FA03FC8CEAE17CACEBE17095
:104770007047102BC4BF0020704703F5787CBCF154
:10478000FF3F04D06FF0004282EA2100704770B50D
:1047900000F0DAF84992248000207047F2E710F028
:1047A000004248BF4042B0FA80F310FA03F10AD049
:1047B000C3F11D0303F580634FEA415002EB03523E
:1047C00002EBD12170474FF000007047B0FA80F340
:1047D00010FA03F10AD0C3F11D0303F580634FEA19
:1047E00041504FEA035202EBD12170474FF00000D5
:1047F00070470000DFF848C170B51CEA111E1EBFEB
:104800001CEA13159EEA0C0F95EA0C0F00F06F805E
:1048100081EA030423EA4C134EEAD47E21EA4C11C8
:1048200041F4801143F48013AE44A1FB024CA0FB81
:104830000365AEF17F7E361955EB0C05A1FB034CE9
:104840004CF10003A0FB021C16EB0C06654153F172
:104850000003094218BF46F0010613F4007F0BD194
:104860004FEA03314FEA0530340341EA155140EA7B
:1048700016506FF003020AE04FEAC3214FEAC52049
:10488000F40241EA555140EA56506FF0020202EB41
:104890002E4201EB025585EACE710AD05FEA440C44
:1048A00018BF24F0004450F1000041F1000120EA5B
:1048B000D47040F2FE7C624500D270BDA84214BFA5
:1048C0004FF080444FF04044002E08BF0024BEF15A
:1048D000806FA8BFA1F1C041BDE8704080F2828026
:1048E0004FF0000001F1C04101F0004170479EEA25
:1048F0000C0F0CEA131518BF95EA0C0F06D04FF0F9
:10490000000081EA030E0EF0004170BD00F01CF8BB
:104910008900013E00F007B800F009B84FEA430CE7
:104920005FEA5C5C08D081EA030100F05BB84FEA03
:10493000410C5FEA5C5CF6D14FF000000149704722
:104940000000FF070000F87F0EF1020E2EF0030EAC
:104950005EF8046B364205D4012A43EB030515F5D6
:10496000001F12D8012841EB010C1CF5001F0CD8C8
:104970000ED14FEAD17C15F5001F0CEB4C0C0CF15D
:10498000020C08BF4CEBD37C04E04FF0080C01E0B4
:104990004FEAD37C0CEB4C0526FA05F606F0070629
:1049A000B6F1040C06D20EEB860CBDE870404CF05C
:1049B000010C6047DFE80CF0090B02024FF00041E8
:1049C0004FF00000A1F5002170BD194610460128E6
:1049D00051EB010418BFD4F5001484BF002001F08E
:1049E000004170BD0808A0F500114FEA3101704781
:1049F00091EA030F10B581F000413FF5A9AC83F0B7
:104A0000004300F0D5B800002DE9F04101F5801C0D
:104A1000BCF5001FC0F2A9804FEA115C21EA0C51DD
:104A20000CF1FD0C41F480115FEA5C0C0CF5C07CCC
:104A300001D34000494130A4890241EA90518702E4
:104A40008E0E0A0CA45D04FB04F602FB06F6C6F10A
:104A50004046A4FB0662F60D46EA422606FB06F433
:104A6000A4FB01235242C3F1404338BF5B1EA6FBA7
:104A700002420024E6FB0324D20B42EA4446A6FB92
:104A80000623A1FB02E2A3FB07E4E3FB61426442CD
:104A9000C2F1404E38BFAEF1010EA6FB04234FF029
:104AA0000002E6FB0E32A2FB03463400E2FB626426
:104AB000A1FB06E6A4FB07E8E4FB61687642C8F1C7
:104AC000405838BFA8F10108A2FB06E4A3FB08E5A3
:104AD000E2FB6854A1FB05E6A7FB04E8E1FB648662
:104AE00018F1200556F10006A809A8F11B08B10924
:104AF00008F03F08B8F10A0F40EA86601CD901EBC4
:104B00000C51BDE8F08100BFFCF5EEE8E2DDD8D342
:104B1000CFCBC7C3C0BDB9B6B4B1AEACA9A7A5A32E
:104B2000A19F9D9B9A9896959392908F8D8C8B893F
:104B30008887868584838281A0FB006800FB01F260
:104B400008EB4208B8EB872807D5341858EB010466
:104B5000D5D5401C51F10001D1E7341A78EB01049E
:104B6000CDD4401E71F10001C9E75FEA4C0C5FEA49
:104B70009C5C0DD105D34FF0000001F00041BDE871
:104B8000F081BDE8F04170B5FFF7DEFE6DDBFFBEE2
:104B9000BDE8F0414FF00000004970470000F87F89
:104BA00010B591EA030F48BF83F000433FF5D0AB47
:104BB000841A71EB030C07D212198CF0004C43EBF2
:104BC0000C03001B61EB0C01DFF8A4E14FEA115468
:104BD000A4EB135C1EEA430F18BF9EEA445F00F08B
:104BE000B08023EA6E03524221EA0451C3EB6E0304
:104BF00038BF5B1EDCF1200E25D322FA0CFE10EB31
:104C00000E0043FA0CFE41EB0E01CCF1200E03FA2C
:104C10000EFE10EB0E0051F10001CCF1200E29D454
:104C200012FA0EF201EB0451BDE8104058BF704774
:104C3000401C1CBFB2F1004F704700280CBF491C3C
:104C400020F00100704712EB020E43EB030218BF85
:104C50004FF0010E4EEA4202ACF1200CDCF11E0EC8
:104C600054D943FA0CFE10EB0E0051F1FF31CCF198
:104C70001E0ED5D50EF1010E12FA0EFE404141EB8B
:104C8000010101EB445C5FEA5C5C10D910EBDE7063
:104C900001EB045138BFBEF1004FBDE8104018BF12
:104CA000704700280CBF491C20F00100704730D22B
:104CB0004FEAD42C11F5001124F400641BD0B1FA92
:104CC00081F20B3AA41AA41ED2F12003914030FACB
:104CD00003F31943904001EBCC71002C01EB04511C
:104CE000BDE81040A8BF704701F1C0414FF000007F
:104CF00001F000417047B0FA80F310FA03F100D1DF
:104D000010BDE41A173C4805C90AE4E701EB045159
:104D100010BD491001EB0451BDE810404FEA3000CE
:104D200002E04FF0000170474A0008BF0042F8D08F
:104D3000B2F5001F28BF704701F000414FF000009E
:104D400070479EEA445F07D011EA5E0FBDE810404D
:104D500004BF002100207047BDE8104070B5FFF788
:104D6000F3FD00BF40DFF63E83F000411046704780
:104D70000000E0FF43004FEAD30C4FEA3C0C4340F5
:104D80001FBF40070CF1605113F0FE4F70471CF03D
:104D9000006F03D100200CF0004170470CF000437D
:104DA00043EA507010B540EACC0000F00EF800BFA6
:104DB000000000924FEA0001FFF714BE4FF00041DF
:104DC0004FF00000A1F5002170470EF1020E2EF009
:104DD000030E5EF8044B244204D44FEA4102B2F1C0
:104DE0007F4F11D84FEA4003B3F17F4F0CD80ED15B
:104DF0004FEAD07CB2F17F4F0CEB4C0C0CF1020C63
:104E000008BF4CEBD17C04E04FF0080C01E04FEA06
:104E1000D17C0CEB4C0324FA03F404F00704B4F146
:104E2000040C06D20EEB840CBDE810404CF0010CD3
:104E30006047DFE80CF0070802024FF00040A0F5E1
:104E4000800010BD0846420018BFD2F1807288BFB2
:104E500000F0004010BD4FF04070E1EE100A7047C6
:104E6000FF2141EAD050C005704701000200040054
:104E7000060008000A000C0010002000400080001E
:104E800000010101010307010000080402040801F8
:104E900001010000000000000000010203040607F9
:104EA00008090000000001020304000000000000E7
:104EB000555555555555C53F7D6FEB0312D6D4BF9B
:104EC0005544880E55C1C93F3B8F68B52882A4BFA1
:104ED00088B20175E0EF493F09F7FD0DE13D023F62
:104EE0004B2D8A1C273A03C0C88A599CE52A0040EA
:104EF00059018D1B6C06E6BF82922EB1C5B8B33F37
:104F00004FBB610567ACDD3F182D4454FB21E93FE1
:104F10009BF681D20B73EF3F182D4454FB21F93FD0
:104F2000E2652F227F2B7A3C075C143326A6813C56
:104F3000BDCBF07A8807703C075C143326A6913C01
:104F4000C4EB98999999C9BF711623FEC671BCBF6D
:104F50006D9A74AFF2B0B3BF9AFDDE522DDEADBFD5
:104F60002F6C6A2C44B4A2BF0D5555555555D53FED
:104F7000FF8300922449C23F6E204CC5CD45B73F08
:104F8000513DD0A0660DB13FEB0D76244B7BA93F80
:104F900011DA22E33AAD903F4C5555555555A53F92
:104FA0007751C1166CC156BF9015CB19A001FA3EBE
:104FB000AD529C804F7E92BEC4B1B4BD9EEE213EE8
:104FC000D43888BEE9FAA8BD000000000000000047
:104FD00000004054FB21F93F3163621A61B4D03DB7
:104FE0000000601A61B4D03D7370032E8A19A33B90
:104FF0000000002E8A19A33BC14920259A837B39E2
:1050000000000000000000006E83F9A22915444E44
:10501000D15727FCC0DD34F5999562DB4190433CC4
:10502000AB6351FE61C5BBDE3A6E24B7E0D24D42A0
:10503000EA2E49061C92D1091CEB1DFE3EA729B1A0
:10504000F53582E88444BB2E26709CE9417E5FB42E
:1050500039D69139F43953838B5F849C3B28F9BD51
:10506000FF97F81F0F9805DE8B112FEF1F6D0A5A5F
:10507000CF7E366DB709CB27663F464F2DEA5F9E40
:10508000C7BA27757BF1E5EBF739073DEA92528AFB
:10509000B15FFB6B085D8D1FA6F810111111813FE8
:1050A000D561C119A0012ABF7DFEB157E31DC73EDE
:1050B000EB9C2B8AE6E55ABE7CD5CF5A3AD9E53D22
:1050C000E050000800000020140000001402000856
:1050D000F450000814000020F4070000300200081B
:1050E00000000000100000000100000000000000AF
:0450F0000024F400A4
:04000005080001D915
:00000001FF
